:020000040800F2
:10200000F0840020452100084D2100084F210008E0
:10201000512100085321000855210008000000004C
:102020000000000000000000000000005721000830
:1020300059210008000000005B2100085D21000814
:102040005F2100085F2100085F2100085F21000870
:102050005F2100085F2100085F2100085F21000860
:102060005F2100085F2100085F2100085F21000850
:102070005F2100085F2100085F2100085F21000840
:102080005F2100085F2100085F2100085F21000830
:102090005F2100085F2100085F2100085F21000820
:1020A0005F2100085F2100085F2100085F21000810
:1020B0005F210008F9F7010839F801085F210008DD
:1020C0005F2100085F2100085F2100085F210008F0
:1020D0005F210008C90702085F210008A108020863
:1020E0005F2100085F2100085F2100085F210008D0
:1020F0005F2100085F2100085F2100085F210008C0
:102100005F2100085F2100085F2100085F210008AF
:102110005F2100085F2100085F2100085F2100089F
:102120005F2100085F2100085F2100085F2100088F
:10213000DFF80CD000F0D0FC004800474D8C0208BE
:10214000F08400200648804706480047FEE7FEE787
:10215000FEE7FEE7FEE7FEE7FEE7FEE7FEE7FEE757
:10216000C1D20108312100082DE9F05F05460020A9
:1021700092469B4688460646814640241BE02846F8
:1021800041464746224600F012FA53465A46C01AC4
:10219000914110D311461846224600F0F9F92D1A44
:1021A00067EB01084F4622460120002100F0F0F9BC
:1021B00017EB00094E41201EA4F10104DFDC484664
:1021C00031462A464346BDE8F09F000038B5D0E9C5
:1021D0000221491E01EB410102EBC1014268C1EB42
:1021E000011102EB81010268C1EB011102EB8103D5
:1021F000D0E9042101EB410102EB8101A1F552710B
:10220000302491FBF4F2154D04FB1211554303EBFE
:10221000C51300931A2902DB114A1A4400920C23B9
:1022200091FBF3F20F4C009D544303FB121105EB9D
:10223000C4140D4B009408E0491E40F2A3245A5CDC
:102240006243009C04EBC21200920029F4DC0146B8
:10225000684600F0C7F9009838BD00003F0C0F0039
:102260008051010067C203007BC3020840EA0103FA
:102270009B0703D009E008C9121F08C0042AFAD23C
:1022800003E011F8013B00F8013B521EF9D2704700
:10229000D2B201E000F8012B491EFBD270470022A8
:1022A000F6E710B513460A4604461946FFF7F0FF55
:1022B000204610BD421E12F8013F002BFBD111F841
:1022C000013B02F8013B002BF9D1704730B50546C0
:1022D0002A460B4612F8010B13F8014B08B1A04235
:1022E000F8D01CB1002802D06D1CF1E7284630BDA3
:1022F00010B5044604E00B7800F8013B03B1491C1B
:10230000521EF8D2204610BDCAB2401E10F8011F5E
:102310008A4202D00029F9D100207047421C10F8EF
:10232000011B0029FBD1801A704710B5002200E084
:10233000521C835C8C5CA34201D1002BF8D1D8B233
:10234000E1B2401A10BD30B504460020034600E05B
:102350005B1C934203D2E05CCD5C401BF8D030BDE7
:10236000034611F8012B00F8012B002AF9D1184679
:1023700070472DE9F04791460F46804604460026F7
:1023800014F8015B2DB100F023F90068405DC0072F
:10239000F6D12B2D02D02D2D18D0641E4A46394679
:1023A000204600F05FF927B13968A14201D1C7F892
:1023B000008071054FF002040BD54042002803DD78
:1023C00025F0A8FD0460A007BDE8F08746F480660C
:1023D000E4E70028F8DA25F09DFD04606FF0004086
:1023E000F2E770B5064625F095FD046805460A2219
:1023F00000213046FFF7BDFF2C6070BD70B506466A
:1024000025F088FD046805460A2200213046FFF7C2
:10241000B0FF2C6070BDF0B480EA0102D40F42001E
:10242000B2EB410F02D20246084611464A0042D0A2
:10243000C30DDDB2C1F3C752AD1A202D35DAC1F399
:10244000160141F4000204B15242C5F1200602FA1D
:1024500006F12A411044B3EBD05F23D0C4B1012D63
:10246000A0EBC35009DCF0BC4FF0004202EAC352BB
:1024700000F50000DBB200F04DB9400000F18070C3
:1024800000EBC350A0F1807040EAD170490009E030
:10249000490841EAC071A0EBC35000F500004008B4
:1024A00000EBC350F0BC00F02CB96142012202EBFA
:1024B0004101001BF6E7F0BC704781F00041AAE73C
:1024C00080F00040A7E780EA010210B502F0004367
:1024D000400026D04A0023D04FEA106101EB126180
:1024E000C0F35600C2F3560240F4000042F400026A
:1024F000A0FB0220A1F17F014FEA0040140401D0AB
:1025000000F1010050EA124001D44000491EC2B25D
:102510000C0604EBD010401C4008802A02D003E0D7
:10252000002010BD20F00100002900DA002018432F
:1025300010BD00F0004220F00040C10DC0F31600B5
:1025400040F400007F2901DA00207047962903DC5F
:10255000C1F19601C84001E096398840002AF4D0C4
:102560004042704730B50B4601460020202201242E
:1025700009E021FA02F59D4205D303FA02F5491B51
:1025800004FA02F52844151EA2F10102F1DC30BD67
:10259000202A04DB203A00FA02F100207047914023
:1025A000C2F1200320FA03F3194390407047202A18
:1025B00004DB203A21FA02F00021704721FA02F3ED
:1025C000D040C2F1200291400843194670470000F4
:1025D0000048704708C40208014900F003B8000031
:1025E000C05C002030B503683C22B3FBF2F002FB74
:1025F00010330B60B0FBF2F302FB130018244860A9
:10260000B3FBF4F004FB10328A60021D0723B2FB17
:10261000F3F403FB14228A61820002F66C3240F26A
:10262000B555B2FBF5F404F144000346486105FBDF
:1026300014208008C8613B2802D39A0700D0401CB0
:102640000022074C13460A61E25C824203D8801ADA
:102650005B1C0B61F8E7401CC860084630BD0000F9
:102660000CC402082DE9F05F824600780027154669
:102670008B460AF10104B946302801D09DB113E020
:1026800014F8010B0127782803D0582801D045B150
:102690000AE00DB1102D07D10027102514F8010B09
:1026A00002E0082500E00A250026B0460EE005FB02
:1026B000080005FB06F1012701EB10461FFA80F820
:1026C000B6F5803F00D3B94614F8010B294600F057
:1026D00027FA0028EBDABBF1000F05D00FB1641E1A
:1026E00000E05446CBF80040B9F1000F06D025F0C9
:1026F00011FC02210160C81EBDE8F09F48EA0640B7
:10270000FAE70029A8BF7047401C490008BF20F025
:102710000100704710B4B0FA80FC00FA0CF050EAE7
:10272000010404BF10BC704749B1CCF1200421FA68
:1027300004F411FA0CF118BF012121430843A3EB63
:102740000C01CB1D0106000A002BBEBF002010BCEF
:10275000704700EBC35010440029A4BF10BC704761
:10276000401C490008BF20F0010010BC70472DE953
:10277000FE4F804681EA0300C00F0C46009021F016
:10278000004123F00045B8EB0200A94105D24046C4
:10279000214690461C460B46024623F0004010435B
:1027A00004D14046214603B0BDE8F08F270DC7F3A2
:1027B0000A00C3F30A510290401A0190402866DAD9
:1027C000C3F3130040F4801B0098924620B100230D
:1027D000D2EB030A63EB0B0B01985946C0F14002A0
:1027E0005046FFF7D5FE06460D4650465946019A1B
:1027F00000F084F910EB08006141002487EA1152CF
:1028000084EAE7731A433BD0009A3AB3019A012A4B
:102810004FEA075210DC001B61EB02014FF000424F
:1028200002EA0752CDE90042001C41F58011324610
:102830002B4600F090F9B6E7001B61EB0201001C8B
:1028400041F5801300185B412018A2F5001747EBF3
:10285000030140EAD570B6196D4111E06D084FEAE9
:10286000360645EAC0754FEA0752001B61EB0201CC
:10287000001C41F5801149084FEA30000019514110
:1028800032462B4603B0BDE8F04F00F057B9009830
:10289000012240000023D0EB020263EBE0730098BA
:1028A00021464FEAE074B8EB000061EB0401E9E770
:1028B00083F000435BE781F0004158E72DE9FE4FCC
:1028C00081EA030404F0004421F0004100944FF039
:1028D000000B23F0004350EA010402D052EA030443
:1028E00004D10020014603B0BDE8F08FC3F30A54C1
:1028F000C1F30A552C44A4F2F3340194A0FB025412
:10290000C1F3130141F48011C3F3130343F48013A3
:1029100001FB024400FB034E840A970A44EA8154F7
:1029200047EA8357A4FB076802958D0A05FB0785D4
:102930004FEA932C04FB0C542705029D4FEA0658DE
:1029400047EA1637B5EB08056EEB070C870E920EBB
:1029500047EA811742EA8312A7FB0201B6EB0B019B
:1029600064EB00042B0D43EA0C335E1844EB1C505F
:10297000DA465146E7FB0201C5F313044FEA0B3375
:1029800043EA14534FEA0432019C43EA0603A4F1DC
:102990000C040294009CCDE900B400F0DCF8A2E73E
:1029A0002DE9F04D81EA030404F0004B21F00045CD
:1029B00014464FF0000A23F0004150EA050220D0EF
:1029C00054EA01021DD0C5F30A570246C5F31303AA
:1029D000C1F31300C1F30A5640F4801543F4801389
:1029E000A7EB0608101BD64608F2FD3873EB05006E
:1029F00002D308F1010801E092185B41B8F1000F21
:102A000003DA00200146BDE8F08D00204FF480116C
:102A1000064684460EE0171B73EB050705D3121B11
:102A200063EB050306434CEA010C49084FEA30000A
:102A300092185B4150EA0107EDD152EA030012D02F
:102A400082EA040083EA0501084303D100224FF023
:102A5000004308E0101BAB4102D20122002302E038
:102A60006FF0010253101AEB06004CEB085110EB0B
:102A70000A0041EB0B01BDE8F04D00F05FB8C1F377
:102A80000A52C1F3130140F2FF3341F480119A421C
:102A900002DA00200146704740F233439A42A2F224
:102AA000334202DC5242FFF782BDFFF771BD0000E6
:102AB00030B5002904DB4FF00044404264EB0101D3
:102AC000002B04DB4FF00044524264EB03039942B5
:102AD00008BF904230BD0000064C074D06E0E0689C
:102AE00040F0010394E8070098471034AC42F6D355
:102AF000FFF722FB80DC0208A0DC0208202A06DBAC
:102B0000CB17203A41FA02F043EAE07306E041FABB
:102B100002F3D040C2F120029140084319467047A9
:102B20003A2800D2303820F02002412A01D3A2F105
:102B30003700884201D34FF0FF30704710B5002BAB
:102B400008DA401C41F1000192185B411A4301D19F
:102B500020F0010010BD2DE9F04D92469B4611B1C9
:102B6000B1FA81F202E0B0FA80F220329046FFF72B
:102B70000FFD04460F4640EA0A0041EA0B015346A6
:102B80005A46084303D120463946BDE8F08D114628
:102B900053EA010015D0C8F140025046FFF707FD87
:102BA00005460E46504659464246FFF7F1FC08439B
:102BB00001D0012000E00020054346EAE0762C43E6
:102BC00037430A984FEA4453A0EB08004FEAD42455
:102BD0000A304FF0000244EA47544FEAD72502D5A5
:102BE00000200146D1E7010510196941DDE90845DA
:102BF00000196941BDE8F04DA0E7C9430160704785
:102C00004209231978041712720070B501EB02040F
:102C100010F8015B15F0070301D110F8013B2A11F0
:102C200006D110F8012B03E010F8016B01F8016BDD
:102C30005B1EF9D12B0705D40023521E0FD401F8D7
:102C4000013BFAE710F8013B02F10202A1EB03039A
:102C500003E013F8015B01F8015B521EF9D5A142B4
:102C6000D6D3002070BD0029816802D041F0010157
:102C700001E021F001018160704700002DE9F04181
:102C80001DF00AFA384C4FF4FA7300226168411AB9
:102C9000591A72EB020059D21DF0FEF96060DFF89C
:102CA000CC80334E002408EB040595F85C32D8063E
:102CB00048D0304A0021084602EB041232F8107066
:102CC000401CC0B239440828F8D3C808A0F2F94023
:102CD00040F22E61884225D306EB040797F83600B0
:102CE000C0062FD404F12100C0B224F0F1FB95F806
:102CF0005C0200F01F00072897F8360008D0000794
:102D000020D404F12000C0B2022119F0A1FB19E087
:102D1000010617D440F0800087F8360051201AF0E1
:102D2000A3F80FE003F01F00072806EB04000FD004
:102D300090F83600C00605D504F12000C0B202218B
:102D400002F0F4F9641CE4B2082CACD3BDE8F081C5
:102D500090F836100A06F5D521F0800180F836107B
:102D600051201AF065F9EDE708000020FC1500205D
:102D7000D01C00203A030020014600208968490742
:102D800000D501207047C06C80B270470246002019
:102D900012680A4200D0012070470146002089686D
:102DA000090700D50120704710B542680E4B0C7919
:102DB0001A400B6842EA04221343436082680B4BBB
:102DC0001A40D1E9024323434C7942EA44021343B7
:102DD0008360C26A097C22F47002491EC9B242EAC9
:102DE0000151C16210BD0000FFFEF0FFFDF7F1FFD1
:102DF00070B5072609290AD9C568A1F10A0404EBB0
:102E00004404A640B543A3401D43C56007E00569DF
:102E100001EB4104A640B543A3401D4305611F23B8
:102E2000072A09D2446B521E02EB820293409C4354
:102E300091400C43446370BD0D2A09D2046BD21F2C
:102E400002EB820293409C4391400C43046370BDAB
:102E5000C46A0D3A02EB820293409C4391400C43BA
:102E6000C46270BD816841F0080181607047000054
:102E700070B52D4D02212846FFF788FF2B4C012805
:102E80000AD0207801284DD1002020702846BDE8C6
:102E90007040012100F050B802212846FFF7ADFE36
:102EA0002846FFF770FF0146214890F8902000EB7C
:102EB00002129030437822F813100178491CC9B2ED
:102EC0000922B1FBF2F302FB131100F8901929B9A2
:102ED00010F8912F521C02F007020270012020709E
:102EE000082913D21348C26822F4E052C260C268B3
:102EF00001F0070342EA8322C260002912D14FF099
:102F000007034FF001024FF00A0106E00AD14FF02B
:102F100007034FF001024FF00B012846BDE8704057
:102F2000FFF766BF70BD00000024014008000020CC
:102F30003A030020001001400029816802D041F4CA
:102F4000A00101E021F4A00181607047816841F097
:102F500004018160704700000548FF210171417143
:102F60008171C171017241724FF0FF310160704790
:102F70004A2300200C4A00681268824209D00B4B99
:102F8000D3F808C062450CD11A6850405A68104204
:102F900007D00748D0F80E200A60408A88800120B8
:102FA00070470020704700004A230020D1570020BE
:102FB0004023002030B587B02E4D2F4C28780028B4
:102FC00002D001284FD13DE01C21684613F0D0FA11
:102FD00013F0DEF9684619F065FDBDF80000012820
:102FE00007D19DF80400062803D19DF805000428A8
:102FF00002D007B0012030BDBDF80600022802D083
:1030000001280DD01EE00298C4F80E00BDF80C0097
:103010006082DDF80E00C4F80A0007B0012030BD60
:10302000164906980968884202D007B0012030BDD1
:10303000DDF80E00206002986060BDF80C00208171
:10304000012028700220ADF806006068CDF812005B
:103050002089ADF8160020680690684600F010F848
:1030600020B10020287007B0012030BD07B000203B
:1030700030BD00001E01002040230020D157002059
:1030800010B5044613F04AFC0028FBD040F6CF20D0
:1030900013F0F2FD01202080C00260800620207124
:1030A000042060710D48D0F82D10A160B0F83110E7
:1030B000A1810068C4F80E00204619F0F3FC1C2220
:1030C000062104F1120013F06BFD1C21204613F0C1
:1030D00039FD13F081F9012010BD0000D157002007
:1030E00000B587B00121ADF80610FF218DF8121050
:1030F0008DF813108DF814108DF815108DF816102A
:103100008DF81710074900680A684B6842401A4258
:1031100002D08868069000E006906846FFF7B0FF8E
:1031200007B000BDD1570020094991F8560000288A
:103130000DD0401E10F0FF0081F8560007D108683E
:1031400040F4806008600D21002014F005B870473D
:10315000D01C002030B5012185B0480215F042FE98
:1031600000244FF46020CDE902040120174D8DF8B2
:1031700004408DF8100000948DF8054069462846FB
:10318000FFF712FE1249072301220C704C700A212E
:103190002846FFF72DFE01212846FFF764FD28464B
:1031A000FFF760FE2846FFF7F8FD0028FAD1284611
:1031B000FFF7CCFE2846FFF7DFFD0028FAD10121FA
:1031C0002846FFF7B9FE05B030BD000000240140DD
:1031D000CA0300202DE9F0471CF05EFFFA4C0025E1
:1031E0002168401A401E75F1000007D31CF054FFFF
:1031F00020606068012801D9401E60606068012875
:103200007ED16560207EF14F40F30001491C61F3DF
:1032100000002076388840F22A320A26EC4DDFF88A
:10322000B483A0F22A314FF416794FF4FA7A90421F
:1032300067D073DC40F2CD12A0F2CD119042F7D0EE
:1032400036DC40F23712A0F2371190427ED01ADC01
:10325000E7280CD00CDC792829D004DC5A2876D059
:103260006F2875D1E7E0D328F3D0DD2870D15AE17B
:10327000F128FCD0FB286CD0A0F58070053801D077
:103280000A2865D1B3E16429E0D008DC0A29DDD041
:10329000142971D01E290AD0282959D143E16E2959
:1032A000D4D07829D2D08229D0D08C2950D113E122
:1032B000FA2926D014DC5A2908D008DC322973D028
:1032C0003C29D4D0462970D0502941D104E1642949
:1032D00017D06E2915D0782913D0F92938D1FBE001
:1032E00040F20F12A1F20F1091420DD00DDC10F13F
:1032F0000C0109D0012904D00A2902D00B2902E0CF
:103300006EE20AE00AE023D1E6E001284DD002286F
:1033100003D0082876D009287DD1C9E041F2225295
:10332000881A91426ED041DC41F20B42A1EB0200BF
:10333000914220D021DC1E291DD010DC012978D03B
:103340000229FCD0DFF89082192503E059E0F7E26A
:1033500061E04AE10A296DD014295CD1BEE2A1F5F1
:103360008071913963D0A1F590515C3903D00A295D
:103370001BD014294FD19BE03DE1B3287ED008DC5F
:103380000A287BD0142810D0A92877D0AA2842D1A7
:1033900026E1B42873D0BD2870D0A0F580700D3818
:1033A00030D0012837D11BE195E0BCE0B0F5C37FF8
:1033B00016D016DC642825D008DC01285FD00A2846
:1033C00020D05A281ED05B2825D1F2E0BE2819D083
:1033D000BF2805D0C8287FD0A0F5807023381AD127
:1033E000FEE040F6BC62A0F6BC61904209D00ADC67
:1033F00011F152006FD00A286ED00B2817D0512837
:1034000009D1F6E068E001296FD002296DD00329C7
:1034100062D004294CD012F053FD3888B0FBF6F18D
:1034200006FB1101BDE8F0474C2002F05BBF04270A
:1034300002E0D7E11DE2062712F042FD98F81D00D8
:10344000411CCDB2BD4200D9054610B9207EC0074F
:103450000AD00B214C2002F045FF98F81D000128EE
:1034600002D1207EC0070DD00B21542002F03AFF7C
:1034700098F81D00022805D1207E01E018E0B2E096
:10348000C0070AD00B215C2002F02CFF98F81D0029
:10349000032802D3207EC00701D00B21F5E0B5FB45
:1034A000F6F10F466C2002F01DFF06FB1751DEE11E
:1034B00012F006FD207EC00704D098F800104C20C2
:1034C00002F010FF00216C2002F00CFF0121CEE180
:1034D00002F008FF82E1DCE012F0F2FC98F81D0037
:1034E000454618B1012809D013E082E0207EC007CC
:1034F0000BD029784C2002F0F5FE06E029784C200C
:1035000002F0F0FE207EC00703D06978542002F05C
:10351000E9FE687F401CB0FBF6F0C1B26C2002F0FF
:10352000E1FE687F3EE012F0CBFC98F81D10032509
:10353000B1FBF5F005FB1011474611B9217EC90713
:1035400005D000EB4000395C4C2002F0CBFE797FC7
:10355000B1FBF5F005FB1011012902D1217EC9074D
:1035600006D000EB400038444178542002F0BAFE07
:10357000797FB1FBF5F005FB1011022902D1217E04
:10358000C90706D000EB4000384481785C2002F087
:10359000A9FE787F401CB0FBF6F0C1B26C2002F0AF
:1035A000A1FE787F00F10100B0FBF6F106FB1101EE
:1035B0005DE1F879400711D512F082FC207EC0074A
:1035C00075D00B214C2083E7341E002074000020AE
:1035D000849C0208D8150020F0A102080A270BE0FD
:1035E000F8798007E8D1092706E0052704E00827D5
:1035F00002E0122700E0042712F062FC98F81D0098
:10360000411CCDB2BD4200D90546052D28D205F09A
:103610000707012F02D1207EC00704D098F80010C0
:103620004C2002F05FFE022F02D1207EC00704D0A2
:1036300098F80110542002F055FE032F02D1207E8D
:10364000C00704D098F802105C2002F04BFE042F53
:1036500003D1207EC0073FF422AF98F8031014E096
:1036600008EB05074C2017F8041D02F03BFE7978A3
:10367000542002F037FEB9783F1D5C2002F032FE84
:10368000207EC007E7D017F8011C642002F02AFE54
:1036900005E712F015FC98F81D00464610B9207E8B
:1036A000C00705D03078285C40F0100101E095E0BB
:1036B000102118201EF04EFA707F012802D1207EC2
:1036C000C00704D07078285C40F0100100E01021A1
:1036D00020201EF03FFA707F022802D003280ED16E
:1036E0000AE0207EC00704D0F078285C40F010018A
:1036F0000DE0F078295C0AE0207EC00703D0B078A6
:103700000128F6D1F0E7B078012809D11021002076
:103710001EF020FA707F042802D1207EC00704D05A
:103720003079285C40F0100100E0102108201EF0E4
:1037300011FA707F052802D1207EC00704D070796D
:10374000285C40F0100100E0102110201EF002FA69
:10375000707F062802D1207EC0070AD0B079295C8C
:103760004C201EF0F7F9707F072802D1207EC00799
:103770000AD0F079295C54201EF0ECF9707F0828FB
:1037800002D1207EC00704D0307A285C40F01001BE
:1037900000E010215C201EF0DDF9707F092802D1C5
:1037A000207EC0070AD0707A295C64201EF0D2F90E
:1037B000707F0A2802D1207EC0070AD0B07A295C27
:1037C0006C201EF0C7F9707F0B2802D1207EC00745
:1037D00004D0F07A295C74201EF0BCF9C4F804907F
:1037E000BDE8F08712F06CFB98F81D00C246411C42
:1037F000CFB2042F00D9074607F00708B8F1010F30
:1038000002D1207EC00704D09AF800104C2002F0AC
:1038100069FDB8F1020F02D1207EC00704D09AF8EA
:103820000110542002F05EFDB8F1030F02D1207E9A
:10383000C00705D09AF80200285C40F0100100E0B3
:1038400010215C201EF086F9B8F1040F02D1207E11
:10385000C00704D09AF80310642002F043FDB7FBC0
:10386000F6F10D466C2002F03DFD06FB157174204B
:103870002EE6B87990B1012834D820D14FF000015C
:1038800052481DF07DF9012003F0AEFAB87800EB44
:10389000800108EB8100C088388010E005F0DCFB77
:1038A00068B94B48BD71008810F4C04F04D1494835
:1038B000017841F001010170012147483DE0B879EC
:1038C0004008B0FBF6F14C2002F00CFDB87940083E
:1038D000B0FBF6F106FB1101542066E0B879D8B1CF
:1038E000012803D9A0F10100B871E8E703D005F081
:1038F000B3FB0028E3D1B87800EB800108EB81002E
:103900003749C0883880354890F81A0300F007001E
:1039100001EB8000002110E005F09EFB0028CED1D5
:10392000BD7103F081FA042003F07EFA2C480021D7
:103930001C301DF025F900212A481DF021F9BEE7B1
:1039400012F0BEFA98F81D00454610B9207EC00757
:1039500009D029784C2002F0C5FC687F012802D1EB
:10396000207EC00703D06978542002F0BBFC0B21F5
:103970005C2002F0B7FC7879E0B1207EC00704D06B
:10398000687F295C642002F0ADFC687F401E90FBDC
:10399000F6F0C1B26C2002F0A5FC687F401E90FBDF
:1039A000F6F106FB1100C1B2742002F09BFCC4F8D2
:1039B00004A015E700216C2002F094FC0021742083
:1039C00002F090FCA9786420EFE70000B0960208AE
:1039D000D01C002072000020529D0208FC1500201F
:1039E00090960208569D0208174B10B59878174913
:1039F00000EB80001A8831F82000824223D000209A
:103A000000EB800431F82440A24218D1987000EBFA
:103A1000800001EB80000E4C01692162C068012129
:103A20001DF0AEF80B4801214160017E41F001011B
:103A3000017600206077BDE8104000F00DB8401C12
:103A4000C0B2C828DCD310BD74000020F0A1020869
:103A5000D8150020341E00202DE9FC5FDFF8049407
:103A600040F2DD2C4B46B9F80000DF7893F804A053
:103A7000791CFE4BFC4C0A25A0F2DD224FF0640BB2
:103A800001F0FF0E03EB8706604575D075DC40F250
:103A9000B912A0F2B911904270D073DCFB286FD03C
:103AA00027DC6F286DD00FDC502804D004DC0C28F4
:103AB000FBD046284CD1C1E15A2871D0632847D1A8
:103AC000BDE8FC5F02F0E4BFDD286AD006DC79289F
:103AD00068D0D3283CD1D3F8461005E0E72874D04D
:103AE000F12835D1D3F87310BDE8FC5FDE4810F043
:103AF000BDBB40F25512A0F25511904276D032DC97
:103B000040F23712A0F23711904270D022DC11F14E
:103B100032006DD00A281BD193F9B300002868D079
:103B200030382070B43318783038607058783038B6
:103B3000A07098783038E070D878303820711879D3
:103B40003038607158793038A07198793038E07128
:103B5000BDE8FC9F0A297DD01429F9D1C348D0F8CB
:103B6000E3002060F4E70A2975D0462974D0502973
:103B700073D05A29ECD1BAE14DE256E0BEE101E042
:103B800080E153E1A92930D020DC642966D011DC22
:103B9000462979D007DC0A2977D01429D8D13FE10A
:103BA0006BE269E16FE0502970D05A29D0D193F8C7
:103BB000350132E26E296AD0782969D0822968D02D
:103BC0008C29C5D193F83A0155E258E140F2171318
:103BD000A74AA1F21710994255D015DCC72904D085
:103BE00008DCB32901D0BD29B2D127E1A4E173E1FA
:103BF0006BE19CE1A1F580710D3944D00129A7D179
:103C0000B85C00F01F0036E201286ED00A287ED092
:103C10000B286CD00C289BD196F86102B0FBF5F113
:103C200005FB11002170607092E7DFF8388241F2E5
:103C3000655CA2EB0C0098F80710019121F00301DC
:103C4000491C009198F80310DFF8208201EB410134
:103C5000414404E043E172E1D6E002E178E16245EB
:103C600011D060DC41F23A4CA2EB0C00624571D0FD
:103C70002EDC4F2A6FD01CDC082A6DD00ADC012A0A
:103C80006BD0072AD0D1E0E084E038E15DE162E169
:103C900064E166E14D2A3AD04E2AC5D196F88002F9
:103CA000B0FBF5F105FB11002170607096F8810200
:103CB000D1E16B2A7ED004DC572A7CD0612AB3D1B3
:103CC000D3E1A2F58072033A76D0DB2AACD1B2E020
:103CD000C7281CD013DC1E286FD009DC0A286DD041
:103CE0001428A1D193F83D01C5E18DE10FE08FE1EA
:103CF00028287DD0322897D193F840018DE1C8283B
:103D000077D0D12803D0D22874D0DB288CD1494673
:103D1000704689F803E05246D64502D9104681F82C
:103D200003A0C0B2A7E140F22D1CA0F22D12604505
:103D300079D01CDC652877D010DC0B2875D004DC2A
:103D4000012856D00A289DD17FE014287DD0642810
:103D500098D17AE008E174E170E16CE16E2874D0EA
:103D6000C82872D0C92844D0D2288BD16DE040F643
:103D70005D51A2F65D508A4273D049DC40F6515144
:103D8000A2F651508A4260D03ADC632A31D010F159
:103D90000A0294D137480178B1FBF5F205FB121104
:103DA000227061704178B1FBF5F205FB1211A2702F
:103DB000E17004E05DE155E140E0DBE0D7E08178CF
:103DC000B1FBF5F205FB121122716171C178B1FBF3
:103DD000F5F205FB1211A271E1710179B1FBF5F267
:103DE00005FB1211227261724079B0FBF5F102E01D
:103DF000C3E0C5E0C8E005FB1100A172E072A7E6D0
:103E0000012818D00B28FAD118491222EA3171E0A2
:103E100001286CD0022873D03F2870D04028EED102
:103E200093F8330127E1DBE0D4E0BBE018682060C1
:103E30009888A0808CE6D6F8020092E6002189F8E6
:103E40000310FF2189F8041082E64946704689F87C
:103E500003E05246D64502D9104681F803A0C0B20D
:103E6000DCE640E074000020D8150020FC1500209E
:103E7000371800206C000020D3F84E1034E6D3F839
:103E80004A1031E6B3F8A80042F21072B0FBF2F12A
:103E900002FB110221704FF47A71B2FBF1F26270F1
:103EA000B0FBF1F201FB12025946B2FBF1F2A27033
:103EB000B0FBFBF20BFB1201B1FBF5F1E170B0FBC3
:103EC000F5F105FB1100207142E693F9AA0070B3E9
:103ED00030382070AB3326E612226B490AE06A497B
:103EE0001222123106E0684912223D310BE0664988
:103EF00012224F316548FEF7B9F907E000E021E0F2
:103F00006149122261316148FEF7B0F90020024692
:103F10000E23012A0CD0215C50290BD0092901D98C
:103F200025540122401CC0B21228F2D310E64BE007
:103F30002554F7E72354F5E793F8E7006EE6B3F866
:103F4000E8006AE093F8320168E693F8340164E02F
:103F500093F8360162E693F837015FE693F838018B
:103F600089E093F8390186E093F83B0183E093F808
:103F70003C0152E093F83E017DE093F83F017AE086
:103F8000009889F80700E3E57F1E03EBE70007F0E0
:103F9000070390F8442101209840024214D001F216
:103FA00049110CE0FF1D03EBD70007F0070390F861
:103FB000442101209840024206D001F26111BDE87F
:103FC000FC5F32481DF0D4BCBDE8FC5F09212F48DE
:103FD000FEF765B9019941F0040189F80710B7E5CA
:103FE00093F84B010B2220F0010083F84B010921CB
:103FF0002648FEF74DF9009989F80710BDE8FC5FE7
:104000002349E1201CF012BFB85CC0F3411032E03C
:1040100096F8600202E696F86202B0FBFBF12170AE
:104020000BFB1101B1FBF5F16170B0FBF5F105FB84
:104030001100A0708CE596F863021CE01548385C0E
:1040400019E096F88202B0FBF5F105FB1100217032
:10405000607096F88302B0FBF5F105FB1100A170CA
:10406000E07075E5012002F0DFFE002089F806000F
:104070006EE593F8D60220706AE5002089F8050005
:1040800025706570A57063E5BB160020D81500206B
:10409000C9700108D218002070B5114C054621687E
:1040A000480701D4480608D521F0400020600C499B
:1040B00000202071486481F84800002000F0BAFB1D
:1040C000284600F095FF208810F4C04F06D105491E
:1040D000087840F0040040F00400087070BD000053
:1040E000D01C0020720000202DE9F04707465348FD
:1040F000DFF85091DFF85081C2785148BCB000EB36
:104100004105012AA9782BD0002002900690039047
:104110000490059007904AF65520ADF8080049F242
:104120001000ADF80E001020ADF80A008DF81A103E
:10413000E97809EB8100C3788278CDE900234378E0
:1041400019F8212041A10DF1120023F0B5FEFF2046
:104150008DF81B00002318F83700182202A967E029
:10416000DFF8F8A03C4C9AF81903002814BF3C4E25
:104170003C4E481EC0B237A923F0B9FB2EA937A880
:1041800003F0D6F9E8780EA906EB800050F8040C8D
:1041900003F0CEF90AF15A00FEF7C0F806460EA861
:1041A000FEF7BCF80146A8782EABCDE90A032E4AEB
:1041B0002E48CDE90C6282780DF1180E90F805C0FA
:1041C0000679C378AEE84C10427800780EABCDE9A2
:1041D0000213CDE90402E97809EB8100C378827803
:1041E000CDE90023437819F82120214904F110007A
:1041F00023F062FE0546014604F110001DF0AAFFFF
:104200001CA0211D00682060284613F0ADF84FF077
:104210003031A1606019E1601030C4F830024621ED
:1042200023F070FE18F83700002305F11402214630
:1042300024F030FE3CB0BDE8F087000018020020FA
:104240002C1D002090B102086C5A002025642564C2
:10425000256425640000000054580020FC1500204F
:1042600040C00208A0BF0208561600206C000020C3
:1042700018C2020840616C41000000002DE9F14FB6
:10428000AB48ADF58A6D4FF0000890F800908120A2
:104290008DF80C00A7488DF82480DFF89CB2807858
:1042A0005C4600EBC0000BEB4000EA300DF10E0164
:1042B00014F05EFCA14994F8192309A801F1180A29
:1042C000CDF84C0492B19E4849680279C378CDE993
:1042D00000320291837842789AA1DDF84C0423F0F1
:1042E000EBFD00208DF80D00A025E2E00A689AA100
:1042F00023F0E2FD08208DF80D004625D9E009F1F4
:10430000010000F01F068A4800EB4604E0782928E7
:104310007ED2DFE800F0CD1515151515151515AF72
:10432000AFAFAFAFAFAF151515AFAFAF15AFAF159F
:10433000AF1515AFAFAF15151515151515151500DA
:10434000A078411E27290ED8C8B20DF20C4123F0E7
:10435000CEFA9DF80C0460B9A27880A10DF20C4051
:1043600023F0AAFD05E040B3292831D000208DF8C4
:104370000C049BF819030028DDF84C0437D0FDF736
:10438000CDFF07460DF20C40FDF7C8FFE17807446A
:104390000AEBC1004068FDF7C1FF3918681E814271
:1043A00056D20DF20C41DDF84C04FDF783FF6DA1F0
:1043B000DDF84C04FDF77EFF6EE09BF81903002842
:1043C0005E4800F1080001D0416809E0016807E09B
:1043D0009BF819030028594800F1080005D0C1686E
:1043E0000DF20C40FDF7BCFFC3E78168F8E7FDF76D
:1043F00095FF07460DF20C40FDF790FFE17807446A
:104400005AF83100FDF78AFF3918681E814200E032
:104410004EE00BD20DF20C41DDF84C04FDF74AFFE3
:1044200050A1DDF84C04FDF745FF5AE0B8F1000F4C
:1044300044D100248DF824400DF20C41DDF84C04E9
:10444000FDF738FF47A1DDF84C04FDF733FF52E0DC
:10445000B8F1000F32D100248DF824400DF20C4148
:10446000DDF84C04FDF726FF3EA1DDF84C04FDF716
:1044700021FF4DE09BF819030028DDF84C0425D0FE
:10448000FDF74CFFE17807460AEBC1004068FDF7F5
:1044900045FF3844A84235D2E1780AEBC1004168B3
:1044A000DDF84C04FDF706FF08F1010000F0FF08FD
:1044B000B146DDF8501489457FF421AF03A805F01B
:1044C000A1FF0DF2544D4846BDE8F08FFDF726FFE1
:1044D000E17807465AF83100FDF720FF3844A8423A
:1044E00003D2E1785AF83110DAE7B8F1000FE5D1DC
:1044F00000248DF824400E4800EB4600C1785AF89D
:1045000031100CE0B8F1000FD8D100248DF8244010
:10451000074800EB4600C1780AEBC1004168DDF8AE
:104520004C04FDF7C7FE03A82844B146C475C5E78F
:10453000F21D00204C000020FC15002038990208D4
:104540006C000020253032642D2530326420253067
:1045500032643A253032642025730000202564201F
:10456000000000002000000010B5437804785B1CB8
:1045700003F01F039C4203D1641C04F01F04047069
:1045800000EB4304A170E2704370012010BD0000F5
:1045900070B51D4D05F11406E879401CE8713079BD
:1045A000A979884202D0A8710021E97117490978D8
:1045B000C943890726D0EA79042A23D2F17809B9B8
:1045C00000281FD0124C04EB820292F884328B42F6
:1045D00006D192F88512814202D1502018F044FC95
:1045E000E879F27804EB800090F88612914209D1C4
:1045F00090F887023179884204D1BDE8704050209C
:1046000018F016BD70BD000058000020D01C00201E
:10461000FC15002070B50D46064A0824146040F0D1
:10462000A00017F005FA284617F002FA02480460C5
:1046300070BD0000140801401008014070B50D461F
:10464000064A0824146040F0800017F0F1F928466B
:1046500017F0EEF90248046070BD00001408014034
:104660001008014001B503211F20FFF7D3FF9DF87B
:104670000110BDE808401F20FFF7E0BF70B40546F9
:104680004FF0000C00204C1EA4B2002935D015F8C4
:10469000011BA1F14106192E01D8F1B219E0A1F1D7
:1046A0006106192E02D84739C9B212E0A1F13006CD
:1046B000092E02D8091DC9B20BE02B2906D02D29DD
:1046C00004D02F2904D05F2902D011E03E2100E060
:1046D0003F21BCF1000F12D0BCF1010F18D0BCF18A
:1046E000020F23D04FF0000C1678314302F8011B63
:1046F0002100A4F10104A4B2C9D170BC70474FF0ED
:10470000010C9842F9D2401C80B289001170EFE789
:104710004FF0020C167846EA111602F8016B984227
:10472000EBD2401C80B209011170E1E74FF0030C9D
:10473000167846EA910602F8016B9842DDD2401CD9
:1047400080B289011170D3E7F8B40025042B68D337
:10475000FF276E468DF800708DF801708DF802709D
:104760008DF8037000295CD010F801CB491E89B286
:104770004FEA9C048DF800404FEA8C7C4FEA9C6421
:104780008DF80140D1B110F801CB491E89B244EA3D
:104790001C148DF801404FEA0C7C4FEA9C648DF8A4
:1047A000024059B110F801CB491E89B244EA9C1469
:1047B0008DF802400CF03F0C8DF803C0002416F871
:1047C00004C0BCF1190F04D80CF1410C0CF0FF0C23
:1047D00017E0BCF1330F04D80CF1470C0CF0FF0CC0
:1047E0000FE0BCF13D0F04D8ACF1040C0CF0FF0C51
:1047F00007E0BCF13E0F17D0BCF13F0F17D04FF0D0
:104800003D0C02F801CB04F1010C0CF0FF04042C68
:10481000D5D31B1F9BB205F1040C1FFA8CF5042B9A
:1048200098D22846F8BC70474FF02B0CE9E74FF0C0
:104830002F0CE6E72DE9F05F724EDFF8D0C1744D22
:1048400096F83611DFF8C091C1EB01114FEA810BE8
:10485000DCF800206A4F29684FF0080E4FF400443E
:1048600009F1040A42F4802807287DD2DFE800F02D
:10487000042E62C67D9AA00022F48020654ACCF8FE
:104880000000C2F800E010F4F01F02D1002002F096
:10489000ABFA286820F400606FF30A00286000215A
:1048A0005D481AF0EEFF387820F00800387096F86E
:1048B000D602012806D1534890F87506AA2875D06B
:1048C00050460460BDE8F05F1CF080BA6BF30A014B
:1048D0002960480548D012F4F01F03D14D49091F43
:1048E000C1F800E00020CCF8008002F09DFA2868B2
:1048F000010504D420F4F03000F50050286044494C
:1049000040F6AC500C394880012143481AF0B9FFF9
:1049100096F8D602012806D13A4890F87506AA28DA
:1049200006D048460460387840F0080038705FE0F0
:104930005046F7E76BF30A01296048055ED012F490
:10494000F01F03D13349091FC1F800E00020CCF863
:10495000008002F069FA286820F4F03040F400602A
:1049600000F5A0302860DEE748E042F40020CCF8F3
:10497000000041F4C0202860002127481AF081FF80
:1049800096F8D602012806D11E4890F87506AA2886
:1049900005D050460460BDE8F05F1CF037BA4846C9
:1049A000F8E703E0084661F3DD4075E7484688E72D
:1049B0001A48014222D0C1F3CA4060F30A012960BB
:1049C000134940F6AC500C394880012112481AF0C6
:1049D00058FF387840F00800387096F8D602012861
:1049E00006D1084890F87506AA2805D04846046004
:1049F000BDE8F05F1CF0FAB95046F8E7BDE8F09F5B
:104A000072000020FC15002010080140D01C00207E
:104A1000B4000020140C0140002C01400000F83FBD
:104A200000200022DFF818C0FF2300EB40010CEB50
:104A3000C1010A714B75401C0828F6D3704700006D
:104A40005423002070B51BF027FB3D4C322200237D
:104A5000A168401A101A73EB03014DD21BF01CFB26
:104A6000384BA060384A58784FF04004010705D011
:104A7000A0F1010161F3030058702DE019784D0990
:104A80000BD0072505EB511565F3471119704FEA57
:104A9000101161F3030058700DE0CD0610D520F021
:104AA0000F0000F10A0020F0F00000F1A0005870A3
:104AB00021F0E0001870D06880F04000D0600BE07A
:104AC000080708D51E480C300088C0F30A000128EA
:104AD00001D9146100E054611878C1070DD020F0AD
:104AE00001001870587820F00F0000F10100587094
:104AF000D06880F04000D06070BD81070ED5597835
:104B000020F0020021F00F0101F1040121F0F00179
:104B100001F11001597040F0E0000EE04107EBD5C3
:104B200020F00401587820F00F00001D20F0F00064
:104B30001030587021F0E00060301870546170BD82
:104B4000A80000207200002000100140F0B5404D88
:104B50000020404E2978404C491C01F01F030246BA
:104B60000146B71804EB010C521C491C97F8E3707E
:104B7000D2B28CF82F70C9B2042AF2D36218491C41
:104B8000C9B20126671882F82F60082287F82F2003
:104B900005EB4303491C314FDD78C9B2002207EB16
:104BA000850504EB010CAF5C491C521CD2B28CF899
:104BB0002F70C9B2042AF4D362180025491C82F868
:104BC0002F50C9B26218491C82F82F609A78642667
:104BD000B2FBF6F3C9B2671806FB132687F82F302D
:104BE0000A23491CB6FBF3F6C9B26718491C87F8BB
:104BF0002F60B2FBF3F603FB1622C9B26318491CFF
:104C000083F82F20CBB2002107E0621892F82F2002
:104C100092B11044491CC0B2C9B29942F5D30F21D8
:104C2000B0FBF1F201FB1200C0F10F00E1180A28FD
:104C300081F82F0002D003E00A30EBE781F82F5013
:104C400012205B1CD9B2214481F82F00F0BD000076
:104C50002C1D0020FC1500204015002090B10208FA
:104C600030B40F4B0F4C00201A1892F82F10122955
:104C700010D0401C615CC0B282F82F101828F3D30A
:104C80000948074B09A190F81D2330BC2F330E486B
:104C900023F012B91844002180F82F10F0E700002B
:104CA00040150020B8960208FC15002041542B51F5
:104CB0005744544D463D25642C302C2225732C3806
:104CC000302C3530220D00006805002070470000B0
:104CD00070B5044600200246064D07E0A65CC3B24C
:104CE0007340521C35F8133083EA10208A42F5DBFA
:104CF00070BD000034B2020810B50022044B03E07E
:104D000050F822401C60521C8A42F9D3186810BD2A
:104D100000300240014901208860704700300240A5
:104D20002DE9F04389B0044600260796002014F0D0
:104D3000F1FC00909DF800808DF82080012014F097
:104D4000E9FC00909DF800908DF8219034B301AFFC
:104D5000142C01D9142500E025460695294601A802
:104D600011F006FC601B84B29DF8180010F0010FD2
:104D700002D07E55681C069001A9BDF8180058B1F4
:104D800031F8020B079A10440790BDF81800801EF6
:104D900082B20692002AF3D1002CD9D141460020DC
:104DA0001CF08EFE494601201CF08AFEBDF81C0056
:104DB000BDF81E1008440790BDF81C00BDF81E1079
:104DC0000844C04309B080B2BDE8F08381B04B080D
:104DD000002200925A1E92B2002B0AD030F8023BF9
:104DE000DDF800C0634400931300A2F1010292B207
:104DF000F4D111F0010F03D000780099084400901D
:104E0000BDF80000BDF8021008440090BDF8000095
:104E1000BDF802100844C04380B201B070470000E2
:104E200070B51BF039F9234D4FF47A7200242968CC
:104E3000401A101A74EB04013BD21BF02DF91E49E5
:104E40004FF47A7200238969401A2146FDF78CF9E4
:104E500084B21BF021F92860287E40F34001491CF0
:104E600061F34100287611F02BF86426B4FBF6F5C7
:104E7000E9B24C2001F036FA06FB15400A25B0FBDA
:104E8000F5F1542001F02EFAB4FBF5F005FB1041CA
:104E90005C2001F027FA102140201CF05BFE07483F
:104EA000018841F0100101805A2011F06DF804488A
:104EB000457170BD341E0020D8150020200C004024
:104EC000D01C002070B4184C237F0D2B04D00B2B6A
:104ED00002D070BC0FF0DEBC144D0020E87008E07A
:104EE000EB78265C03EB830306EB4303401CEB707B
:104EF000C0B29042F4D3E878884208D8A8780C4A27
:104F000000EB800002EB8000C088288009E009489F
:104F1000008810F4C04F04D10748027842F0020222
:104F20000270297170BC7047D815002074000020F1
:104F3000F0A10208D01C00207200002010B517F06C
:104F40002FFF2A48284C0078A4F51A7200EB400184
:104F500001EBC00102EB8100638AA0F8273052F810
:104F60002110C160016142684261826190F8252090
:104F700012F0080F01D0042300E00D2380F8243044
:104F800022F0070222F0100222F0200222F040025A
:104F900022F0800280F8252090F8262022F00102DD
:104FA00022F0020222F0040222F0080242F0100273
:104FB00080F8262094F8260020F0010020F002005E
:104FC00020F0080020F0100084F82600E16010F0C6
:104FD000E3FFA08010F0E0FFE0804FF0FF30A084FE
:104FE0000120A08210BD0000F44F0020AC01002081
:104FF000104A10B511684B0708D521F0040141F0A3
:10500000080111600F2112F0A7F80FE008070DD575
:1050100000201118401C8B7DC0B223F003038B7558
:105020002928F6D3106820F0180010600248417853
:10503000017010BDD01C00206E1D00202DE9F04134
:10504000144E154F002406EB0405A87D010715D565
:1050500020F00800A875601CC0B2192112F07CF87D
:10506000A87DC10603D4810601D4400606D5787810
:10507000401C7870306840F480703060641CE4B28A
:10508000292CE0D3306820F40070306000203870A4
:10509000BDE8F081D01C00209D000020094B0020BD
:1050A0001918401C8A7DC0B222F070028A75292826
:1050B000F6D31868044920F4807018600020487006
:1050C00070470000D01C00209D000020154B10B53B
:1050D0001844154A817D0C0707D521F00801817518
:1050E000117811B1A1F101011170817D4C0603D439
:1050F000CC0601D48C0606D521F07001817550785C
:1051000018B1401E5070507818B9186820F480709B
:1051100018601078002803D1186820F40070186017
:1051200010BD0000D01C00209D000020FEB5494DA0
:10513000494E421C6F78341807297CD2DFE801F011
:105140007B041D4655607700A07D010773D520F0D4
:105150000800A075297811B1A1F101012970C106DB
:1051600003D4810601D4400665D507F101076F70AD
:10517000306840F4807030605DE0A17DCB065AD588
:1051800021F01001A175890710D034A1D1E90037B1
:1051900089680093CDE901713349084490F83C02D5
:1051A00000F01F001DF80010D0B201E0D0B21C21A9
:1051B00011F0D2FFA07D81063DD44FEA40602FE080
:1051C000687880B3A0F10100687034E0A07D8106AA
:1051D00031D520F02000A075C1062CD440062AD479
:1051E0000FB3A7F101076F7025E0A07D410722D51D
:1051F00020F00400A075D0B2272111F0ADFF1AE015
:10520000A17D4B0617D521F04001A17528280BD0B0
:10521000D0B2282111F0A0FFA07DC1060BD48006DA
:105220000028CDDA07E008E01E212920F2E7A07D62
:1052300020F08000A075687818B9306820F480707C
:1052400030602878002803D1306820F40070306086
:10525000FEBD00009D000020D01C00200020212267
:105260002324252608000000FC1500200E49B1F873
:105270004A00002817D0401E0004000CA1F84A0084
:1052800011D1A1F2D460B0F8E80000280BD0C0EB37
:1052900000104FF6FF7202EA8000A1F84A001521C3
:1052A000002011F059BF7047D01C00202DE9F041BB
:1052B00011F0CCFED84ED9A0FF2201683160808861
:1052C000B0804021B01DFCF7E3FFD6A0DAA1006852
:1052D00046F8060FD54830646FF07F407064D448BC
:1052E000B064D448F0644FF008303065CA485A3092
:1052F000FDF736F8D3A1D548FDF732F8D348D4A14D
:105300001030FDF72DF8D148D3A12038FDF728F84B
:10531000CE48D3A11038FDF723F8012786F86A702C
:10532000022586F86C500024C6F86D4041F62670C0
:10533000B949A6F8A20001F1B30081F8AA400470AF
:1053400086F8714086F8B770B42186F8B61086F8F2
:10535000B870122186F8B91086F8CB1004634FF0AC
:10536000050886F8E180A6F8E24086F8E41086F8A1
:10537000F61086F8081186F81A1186F82C8186F83E
:105380002D5186F8395186F8337186F832510A2149
:1053900086F83A111E2286F8362186F8375186F8AB
:1053A0003871032286F8342186F8355186F82E119B
:1053B000404686F82F1186F83001974886F831412B
:1053C000B61FC0F84441C0F84841A0F8FA41002097
:1053D0003118401C91F83C22C0B222F06002203209
:1053E00022F0800281F83C222828F1D306F50F76BE
:1053F000307820F01F00401C3070707820F01F00C3
:10540000801C7070B07820F01F00801CB070F078A5
:1054100020F01F00C01CF070A6F50F760420311894
:10542000401C91F83C22C0B222F01F02921C81F86D
:105430003C222028F3D320203118401C91F83C2234
:10544000C0B222F01F0281F83C222828F4D30020A9
:1054500006EB800101F51971401C0C704C708C70CA
:10546000C0B2CD700828F3D378487FA1BB38046060
:1054700044608460C4601130FCF772FF0E2086F82F
:10548000D502724886F8947286F8D6721021683870
:10549000FCF705FF6D484FF4A0712030FCF7FFFECC
:1054A0005D485D4A00F5906180F8A0441920A2F89B
:1054B000D00481F85240114601F5A06081F8024500
:1054C0008476084681F84A4580F8CA4580F8FA454E
:1054D00080F82A46002007213218401CC0B282F80A
:1054E000E7120828F8D3082041463218401CC0B201
:1054F00082F8E7120F28F8D30F2009223318401C36
:10550000C0B283F8E7221628F8D3162008223318F1
:10551000401CC0B283F8E7221A28F8D31A203218A8
:10552000401CC0B282F8E7422828F8D306F20536BC
:105530000420317037757476B575777530763C20F8
:10554000F075A6F2053623F0E9FD3349A1F85A06B5
:105550005020A1F85C064848C1F85E0644F272602B
:10556000A1F8620645A14848FCF7FAFE2A485521F1
:1055700080F8751600203218401CC0B282F87646BA
:105580002828F8D3244880F89E1680F89F4680F893
:10559000A046214980F8B046632081F8D00616F075
:1055A0009FFA002016F06AFA40F2D4611A4816F009
:1055B0005BFB0EF0B3FE4FF4A04016F065FA3348E3
:1055C000016821F00301016017F03EFC30480480BF
:1055D00044804FF4005016F057FA04222C49022060
:1055E00001F016FF2B490122087820F0020040F05C
:1055F00001000870002001F00BFF0EF08FFE13F089
:10560000FFFD22F05BF90EF089FEBDE8F0414FF49A
:10561000004016F039BA0000FC150020000102031A
:10562000040500000102030400000000C0A80151AD
:10563000C0A80101CA60805654435049505F504190
:105640004E454C0061646D696E0000003B190020FE
:10565000303132333435000075736572000000005C
:10566000313233340000000074696D652E6E697349
:10567000742E676F760000002F5B4A663132333438
:105680003536373800000000601C0020D01C002098
:10569000A20000207C00002030B51B4890F89F0637
:1056A00001282FD119484078011F062928D3174D0A
:1056B000072403282978EA7801EB8103A97802D02E
:1056C0000A280FD01EE0042000EB9300B0FBF4F397
:1056D00004FB1300C0F11F00814211D812D1022A2D
:1056E0000ED20FE0012000EB9300B0FBF4F304FBBB
:1056F0001300C0F11F00814202D303D1022A01D25C
:10570000012030BD002030BDFC1500206C000020C1
:105710002DE9F0410122284E0546002406EB8400C5
:1057200090F8671201293FD190F86412A94203D082
:1057300090F86512A94237D1204F002207EB84016F
:105740008B78D3B14878A8422BD117F824000021D8
:10575000401EC0B216F07CFE354495F83B0200F0C6
:105760001F0117F8240011F0F7FC95F83B02C0F375
:105770004110FFF75FF801221AE006EB840393F86B
:105780006532AB4204D107F8243090F8643203E06C
:1057900090F8645207F824504B7090F866028870B5
:1057A00006E006EB8400F8E7641CE4B2082CB5D3ED
:1057B0001046BDE8F0810000FC1500208E1E002080
:1057C00010B5054C2078FF2803D01AF071FDFF209A
:1057D00020700020607010BD1424002070B50C48AB
:1057E0000126FF2501780B4C002906D10670002008
:1057F0002570401CC0B20028FAD02078FF2802D0C3
:105800001AF056FD257066701220A07070BD000061
:1058100028010020142400200248807800F00100B4
:10582000704700001424002070B500249E4D687855
:105830000D2880F03381DFE800F0C7071343627C56
:10584000CBEAFDEAFDEAFD0000214323442208469D
:105850001AF042FE2870FF2800F0208102206870B4
:105860003C20A860002085F82400A87820F00100E2
:1058700020F00400A87011F03FF8002800F00E811D
:1058800028781AF011FEB0F5967FC0F00781A8784D
:1058900080F01000A8702878FF22C0EBC001834878
:1058A00000EB81000A21FCF7F3FC0021012022F02B
:1058B000C1F91AF0F1FB68600320687000F0EEB8DF
:1058C00028781AF0C7FDFA280ED21AF0E5FB6968AD
:1058D000411A0020B1F5FA6170F10000C0F0DE80DD
:1058E0000220687000F0DAB8A87840F00800A870CC
:1058F00022F02EF8022840F0D18004206870287829
:105900001AF0D2FDB0F5817F5ED328786749C0EBED
:10591000C00001EB8000FF220A21FCF7B9FC002146
:10592000032022F087F91AF0B7FB68600520687041
:10593000B4E028781AF08EFDFA280CD21AF0ACFBED
:105940006968401A0021B0F5FA6071F100003BD39C
:1059500002206870A2E021F0FBFF052802D0062893
:1059600032D132E028781AF0A3FCFF2028701AF018
:1059700093FB686006206870A87840F0020040F051
:105980000100A87095F8240010F0010F02D04849DA
:105990002A690A6010F0040F02D04549AA694A60DA
:1059A00010F0020F02D042496A698A6010F0080FB5
:1059B00002D03F4AE969D1603D4900220A6110F0F6
:1059C000100F6BD0286A086168E00220687065E0FB
:1059D0001AF062FB69680022401AB0F57A7072F121
:1059E00000005BD3A868022806D311F57A716960BC
:1059F000A0F10100A86051E00021432344220846A1
:105A00001AF06AFD2870FF2848D0072068702878AF
:105A10001AF04AFDB0F5817F40D30121032022F026
:105A200009F9A87820F00400A8701AF035FB686026
:105A3000687800E002E0401C68702FE028781AF0D7
:105A400009FDFA2812D21AF027FB6968401A0021D2
:105A5000B0F5FA6071F1000020D36878401CC0B244
:105A600068700C281AD90220687017E021F070FFC6
:105A7000052802D0062811D10EE028781AF018FC6B
:105A8000FF2028701AF008FB686006206870A8786C
:105A900040F00200A87001E002206870601CC4B2EF
:105AA000002C3FF4C4AE70BD1424002060520020CE
:105AB000D15700200B4890F87010012918BF70478B
:105AC00009490A68C0F846204A68C0F84A208A682E
:105AD000C0F84E20CA68C0F852200969C0F85610B4
:105AE00070470000FC150020D157002005490878B8
:105AF00010F0010F01D00020704740F00100087045
:105B0000012070472D01002038B5C02409E09DF820
:105B1000001034EA01000AD000290BD000201AF04E
:105B20006BFC68461AF050FC002803D0EFE768468B
:105B30001AF04AFC38BD000010B5094C2078FF2847
:105B400003D01AF0B5FBFF2020700720A070054994
:105B5000087820F001000870C0F3400010BD00007C
:105B60002C0100202D0100202DE9F04F89B00746BF
:105B7000FE4C00262146A078FD4DDFF8F8B30A78E8
:105B80004FF0FF0A04F1060904F10108082880F02B
:105B90007582DFE800F0040614202C8EFDFCE67010
:105BA00026710BF10C00FDF79BFAE078401CE070C9
:105BB0001AF072FAA0600220A07000F05FBA291DEE
:105BC0000BF10C00FDF7D6F9002846D0DBF80C00ED
:105BD00028600320A070352300220421E4481AF035
:105BE0007BFC2070FF2800F049820420A070207800
:105BF0001AF05AFC002800F04182B9F80000401C5D
:105C0000A9F8000099F801001AF026FD99F80000A3
:105C10001AF022FD01201AF01FFD00201AF01CFDD1
:105C200000201AF019FD01201AF016FD00201AF0CC
:105C300013FD00201AF010FD00201AF00DFD0020C9
:105C40001AF00AFD00201AF007FD00201AF004FDEA
:105C5000E068B0B100F018FA16E01AF01DFAA16879
:105C60000022411AD1F57A7072EB060080F00682AC
:105C7000E078032801D3062000E00120A07000F0A6
:105C8000FDB9206900F000FA00201AF0E5FC607907
:105C90001AF0E2FC00201AF0DFFC01201AF0DCFC14
:105CA0001AF02AFB1AF0F8F9A0600520A07000F0A5
:105CB000E5B910461AF0CEFB90B10DF1100B0DF1C5
:105CC00011001AF081FB04A81AF07EFBBDF8100049
:105CD000B9F80010884212D01AF0FAFA00F0CEB9E2
:105CE0001AF0DAF9A1680022401AD0F57A7072EB46
:105CF000060080F0C3810620A07000F0BFB90BF150
:105D000003001AF061FB0BF102001AF05DFB0BF1CE
:105D100005001AF059FB0BF104001AF055FB0BF1CA
:105D200007001AF051FB0BF106001AF04DFB0BF1C6
:105D300009001AF049FB0BF108001AF045FB0BF1C2
:105D40000B001AF041FB0BF10A001AF03DFBBDF805
:105D50001400411EADF81410C0B10DF11C09FFF77D
:105D6000D3FE09F101001AF02FFB07A81AF02CFB53
:105D700009F101001AF028FB07A81AF025FBBDF86D
:105D80001400411EADF814100028E8D101E035E1FF
:105D900054E1BDF816000DF10409411EADF81610CE
:105DA000F0B3FFF7B1FE09F101001AF00DFB01A8F5
:105DB0001AF00AFB09F103001AF006FB09F10200D0
:105DC0001AF002FB09F107001AF0FEFA09F10600C9
:105DD0001AF0FAFA09F105001AF0F6FA09F10400CE
:105DE0001AF0F2FA09F109001AF0EEFA09F10800C6
:105DF0001AF0EAFABDF80400012807D1BDF8060040
:105E0000012803D1BDF80C0004284CD0BDF80C00CB
:105E1000411EADF80C1058B108A81AF0D5FA00E0F0
:105E20000DE0BDF80C00411EADF80C100028F3D1B8
:105E3000BDF81600411EADF816100028B1D1BDF80E
:105E40001800411EADF81810F0B3FFF75DFE09F120
:105E500001001AF0B9FA01A81AF0B6FA09F1030024
:105E60001AF0B2FA09F102001AF0AEFA09F10700CD
:105E70001AF0AAFA09F106001AF0A6FA09F10500CB
:105E80001AF0A2FA09F104001AF09EFA09F10900C9
:105E90001AF09AFA09F108001AF096FABDF804000F
:105EA000012815D01CE098F8000040F0020088F8A6
:105EB00000002F481AF088FA681C1AF085FAA81C0E
:105EC0001AF082FAE81C00E021E01AF07DFA8CE07A
:105ED000BDF80600012803D1BDF80C00042852D0FB
:105EE000BDF80C00411EADF80C1048B108A81AF01E
:105EF0006BFABDF80C00411EADF80C100028F5D16E
:105F0000BDF81800411EADF8181000289DD1BDF84D
:105F10001A00411EADF81A1038B3FFF7F5FD09F16C
:105F200001001AF051FA01A81AF04EFA09F1030023
:105F30001AF04AFA09F102001AF046FA09F10700CC
:105F40001AF042FA09F106001AF03EFA09F10500CA
:105F50001AF03AFA09F104001AF036FA09F10900C8
:105F60001AF032FA09F1080006E03EE02C010020A8
:105F70003C240020D15700201AF026FABDF8040076
:105F8000012813D01AE098F8000040F0020088F8C9
:105F900000003C481AF018FA681C1AF015FAA81C00
:105FA0001AF012FAE81C1AF00FFA1EE0BDF806000B
:105FB000012803D1BDF80C00042825D0BDF80C0041
:105FC000411EADF80C1048B108A81AF0FDF9BDF853
:105FD0000C00411EADF80C100028F5D1BDF81A00D8
:105FE000411EADF81A10002897D11AF071F92078E7
:105FF0001AF05EF984F800A00720A07098F800005D
:1060000010F0020F13D013E098F8000040F00200E7
:1060100088F800001B481AF0D7F9681C1AF0D4F968
:10602000A81C1AF0D1F9E81C1AF0CEF9DDE72E60B1
:106030002868386009B00120BDE8F08F2079022877
:1060400004D33E6009B00120BDE8F08F401C2071F0
:10605000DBF8100090B1DBF80C1041404840CBF861
:1060600010004840CBF80C00E670FF2A04D0104620
:106070001AF01EF984F800A00120A07009B00020D9
:10608000BDE8F08F3C2400202DE9F041064635465E
:1060900015F8014B3CB12E2C05D02F2C03D02C2C05
:1060A00001D03E2CF4D1A81B401EC7B238461AF0CE
:1060B000D3FA394630461AF0E5FA3044461C2CB182
:1060C0002F2C03D02C2C01D03E2CE1D1BDE8F04187
:1060D00000201AF0C1BA000070B505460C460C4904
:1060E000284616F045FC0B4B5A1E30B1187840F08C
:1060F000020018700720907070BDD56000201061FC
:1061000090705471187820F00200187070BD000073
:106110003C2400202D0100202DE9F041DFF8C8804B
:10612000074608EB07000C4690F83C02C00659D021
:1061300005213846FEF7FAFF2C480721C619B1EBB6
:10614000141F0AD198F83D01012810D0B07DC00677
:1061500003D502213846FEF7E9FF7D1C482C0DD0FF
:1061600020073DD498F83E0101280DD017E0A00784
:10617000EFD50221384616F06BF9EEE7E8B2BDE83C
:10618000F041072100F002BAE00704D0E8B208218C
:1061900000F0FCF903E004213846FEF7C7FFA00732
:1061A00002D5E8B221F094F960070CD5B07D8006E5
:1061B00018D4E8B2102110F0CFFF3846BDE8F04106
:1061C000032116F045B9B07D80060BD5E8B2112148
:1061D00010F0C2FF3846BDE8F0410321FEF7A6BF2C
:1061E0006007E3D4BDE8F081FC150020D01C00203E
:1061F00038B5384D2878002804D0012810D002285E
:106200000DD12BE047F25F6300211A4608461AF0D1
:1062100063F96870FF2802D02878401C287038BDC8
:1062200068781AF017F90028F9D068461AF0CCF807
:106230001AF04EF89DF800004428F0D12878401C50
:10624000287068782449C0EBC00001EB8001234826
:1062500002680A6042684A600089088168781AF01A
:1062600023F90028DBD01E4C0F2104F11C001AF08A
:1062700009FA0D201AF0F0F90A201AF0EDF90020C1
:1062800000909DF80000204490F82D0022F04EFB75
:106290001AF0E2F99DF80000204490F82D0022F059
:1062A0004DFB1AF0D9F99DF80000401CC0B20090D7
:1062B000062803D02D201AF0CFF9E2E70D201AF0BE
:1062C000CBF90A201AF0C8F91AF016F80120287044
:1062D00038BD00001C010020605200206426002010
:1062E000D1570020014A515C1BF034BC849C020849
:1062F00070B5194C194D207820B101281ED01848CE
:10630000E86170BD19F0C8FE2860012020700021EE
:106310004C201BF01FFC134D134C6878015D54207A
:106320001BF018FCE878015D5C201BF013FC287959
:10633000015DBDE8704064201BF00CBC19F0ACFEA0
:1063400029684FF4FA63411A0022591A72EB0200CD
:10635000D7D20220207070BD80000020341E0020A3
:10636000D1780108529C0208549C02082DE9F041A2
:106370007748D0B090F819137648002939D0416891
:106380007548FBF7EDFF754E30787178884200F064
:10639000DA80401C00F01F0400208DF810007048C7
:1063A000817890F805C00379C2788DE80E104378A3
:1063B00002786CA144A821F07FFD06EB4400C07870
:1063C000292851D2DFE800F0931A1A1A1A1A1A1A59
:1063D0001A727272727272721A1A1A7272721A7255
:1063E000721A721A1A7272721A1A1A1A1A1A1A1A55
:1063F0001A0001685848FBF7B3FFC4E706EB4405F1
:10640000A878401E272884BF00208DF8280103D8D3
:10641000C0B24AA921F06BFA4D4890F81903002840
:1064200044A822D0FBF77AFF07464AA8FBF776FF7D
:1064300007EB0008E878544F07EBC0004068FBF713
:106440006DFF4044B0F5807F51D244A904A8FBF70A
:1064500031FF4AA904A8FBF72DFFE87807EBC0003D
:10646000416804A8FBF726FF41E0FBF757FF07460A
:106470004AA8FBF753FF07EB0008E878424F57F8AC
:106480003000FBF74BFF4044B0F5807F2FD244A98A
:1064900004A8FBF70FFF4AA904A8FBF70BFFE87855
:1064A00057F8301004A8FBF705FF20E0284890F8C3
:1064B0001903002844A82CD0FBF730FF06EB440555
:1064C0008046E878304F07EBC0004068FBF726FFB6
:1064D0004044B0F5807F0AD244A904A8FBF7EAFE45
:1064E000E87807EBC000416804A8FBF7E3FE1A4810
:1064F000FBF714FFC0F5007504A8FBF70FFF8542FA
:1065000021D904A91448FBF7D5FE50B02046BDE8B8
:10651000F081FBF703FF06EB44058046E8781A4F4D
:1065200057F83000FBF7FAFE4044B0F5807FDED22A
:1065300044A904A8FBF7BEFEE87857F8301004A879
:10654000FBF7B8FED3E7307850B0BDE8F08100002B
:10655000FC15002038990208B0540020B01D00201E
:106560006C0000203230253032642D253032642D0D
:106570002530326420253032643A253032643A25A1
:106580003032642020000000509902082DE9F041CB
:106590002B4E07460D463068C14389074ED0010493
:1065A00002D520F400403060DFF89880D7B17C1E1F
:1065B000082DE0B24FF000012FD015F049FF08EB95
:1065C000070090F83B02C0F34110FEF733F9306842
:1065D00020F4C04040F0040030601B4801780B29D3
:1065E00022D025E0072D07D0082D0ED040F0100056
:1065F0003060062D0DD00EE098F83A01FEF71AF93A
:10660000306840F010003060E2E740F03000306069
:1066100001E00220D9E70120D7E715F019FFE0B229
:10662000042115F015FFF6E7016E41F480010166C3
:1066300029463846BDE8F04110F08EBDBDE8F08136
:10664000D01C0020FC1500204015002010B5044689
:106650000B4890B0826822B10AA1684621F02CFC58
:1066600003E00DA1684621F027FC10A1204616F09A
:10667000FBF881B26A46204616F012F910B010BD40
:10668000CC2200203C4572723E4552527C3025643B
:106690003C2F4572723E00003C4572723E4552529C
:1066A0007C30303C2F4572723E0000003C457272D7
:1066B0002F3E00002DE9F04104460FF001FC604838
:1066C000018841F0100101805A200FF05DFC5D4906
:1066D0000A20487121785D4DB1FBF0F25A498A5C7D
:1066E00042F01002EA722278B2FBF0F300FB1322B0
:1066F0008A5C42F010022A736278B2FBF0F300FB6E
:1067000013228A5C2A7263780A2B02D342F01002A9
:106710002A72A278B2FBF0F28A5C42F010026A722E
:10672000A278B2FBF0F300FB13228A5C42F0100265
:10673000AA72E278B2FBF0F28A5C6A74E278B2FB89
:10674000F0F300FB13228A5CAA742279B2FBF0F208
:106750008A5C42F01002EA742279B2FBF0F300FB8B
:1067600013228A5C2A75A379B3FBF0F3CE5C6E75B5
:10677000A379B3FBF0F700FB1730085CA875E0794C
:1067800016281BD2DFE800F01A0B0B0B0B0B0B0BC0
:106790000B54484E131A1A1A0F1A1A1A1A1642F0E4
:1067A000100028750AE046F01000687506E0022126
:1067B000302001E0602140201BF0CCF9E97A18205C
:1067C0001BF0C8F9297B20201BF0C4F9297A00208E
:1067D0001BF0C0F9697A08201BF0BCF9A97A1020D7
:1067E0001BF0B8F9697C4C201BF0B4F9A97C54204B
:1067F0001BF0B0F9E97C5C201BF0ACF9297D64202A
:106800001BF0A8F9697D6C201BF0A4F9A97DBDE8F7
:10681000F04174201BF09EB9012130201BF09AF941
:1068200021210AE0012130201BF094F9322104E0FB
:10683000012130201BF08EF930213820BCE7000008
:10684000200C0040D01C0020849C0208341E002034
:1068500010B50FF035FB40214C201BF07BF9402197
:1068600054201BF077F940215C201BF073F9402184
:10687000BDE8104064201BF06DB92DE9F04F0D46C6
:106880001446114611F0B2F8A220E080AC206081DD
:106890000020D726D9210422A3274FF0050C4FF062
:1068A000D1084FF0CE094FF0CF0A4FF0D00B4FF088
:1068B000D20E292D29D2DFE805F028191C1F152238
:1068C000251527655C5F313C41572A2D2F696C489F
:1068D000454D5155704A46353A28777A7D74808304
:1068E00074858700A4F80880BDE8F08FA4F80890AC
:1068F000FAE7A4F808A0F7E7A4F808B0F4E7A4F8CA
:1069000008E0F1E7D32000E0D4202081ECE72681E5
:10691000D8201DE0268159E0D52114E02280668030
:10692000D82119E0F5211AE0E080208110E0F5225D
:1069300034E02280DA216180A780F5E72280DA2224
:10694000628009E0DC21218102E0DD210DE0278168
:106950006081C9E722806680A180E5E7E621218089
:10696000678004E0DC2030E0B32121806080A080DB
:10697000DAE72280062112E0228007216180A4F854
:1069800004C0D1E72280A4F802C0F0E72280DE2113
:1069900005E0A4F800C0092101E0E6222280618020
:1069A000E5E7A4F8088011E0A4F808900EE0A4F848
:1069B00008A00BE0A4F808B008E0A4F808E005E09F
:1069C000D32002E0D42000E0D520208161818BE734
:1069D0002DE9F0412A4F2B4D0C2679682A782C4658
:1069E000092847D2DFE800F005112534293D383B5E
:1069F0003B0042F0010020F0020028700120A0714D
:106A000005222148FBF774FC36E012F0010F4FF02D
:106A100006060AD01C4800F0D3FA40B1287840F0AE
:106A2000020028700220A07126E0A67124E0A67161
:106A300022E0BDE8F04112F081B97869FBF7D1FCA2
:106A4000124D6870B869FBF7CCFC2870A67113E092
:106A5000BDE8F04112F00EB90B20A0710CE0A67158
:106A60000AE0A671A078FE2806D017F08FFAFE2063
:106A7000A07001E00520A0710120BDE8F0810000B8
:106A80006C24002040010020500100204A01002019
:106A900010B5002014F0F2FF40F2D461144815F054
:106AA000E3F8144C2068010206D513490A68134B19
:106AB00002F4E0621A430A6020F00300206012F042
:106AC000D3FD10480E490162002141770F490E485D
:106AD000C8611321002010F03FFB208810F4C04F44
:106AE00004D10B48017841F00401017010BD000091
:106AF000FC150020D01C00200CED00E00400FA057D
:106B0000CD4F0108D8150020D1780108341E00208F
:106B1000720000202DE9F043534900200A260A782C
:106B20004B7802EB820203EB4202D7B24F4D504A40
:106B3000012480464FF0020C4FF064090E2F7CD2E6
:106B4000DFE807F082070A0F122326292C535C5F27
:106B5000656B95F8193302E095F81A335B1C8B705E
:106B60004AE095F81B3364E095F8BC30B3FBF9F4C8
:106B70008C7009FB1434B4FBF6F4CC70B3FBF6F460
:106B800006FB14330B7103212CE095F81C3350E005
:106B900095F81D334DE095F81E33E0E7334B42F294
:106BA0001075B3F85C36B3FBF5F405FB14358C7047
:106BB0004FF47A74B5FBF4F5CD70B3FBF4F504FB38
:106BC00015354C46B5FBF4F50D71B3FBF9F509FB32
:106BD0001534B4FBF6F44C71B3FBF6F406FB143336
:106BE0008B7105215171BDE8F08395F872300BE08F
:106BF0008C7001E081F802805471F4E795F87030F0
:106C000002E01A4B93F89F36012BF3D1F0E7174BB4
:106C100093F89E36AA2BEDD0EAE7144B93F8D036C2
:106C2000632B03D9114C632384F8D0360F4B93F8B0
:106C3000D036B3FBF6F48C7000E005E006FB1433AD
:106C4000CB7082F805C0CEE7A7F13203262B08D817
:106C5000EB1993F8B542B4FBF6F38B7006FB1343C4
:106C6000EEE70120BFE70000D8150020FC1500204A
:106C7000740000202DE9F05FDFF864B100245B466A
:106C80009BF800009BF8011000EB800001EB400036
:106C9000997893F803C001EB81020CEB4206C7B26E
:106CA0005048751E93F80480A2464FF00109F2B2D5
:106CB0000E2F6FD2DFE807F086070C1419272C314E
:106CC0003655606A778202294ED280F8191384E023
:106CD000491E082948D280F81A131AF065F87CE09A
:106CE0000A2D79D280F81B2377E0642251430CEB04
:106CF0008C0201EB42014144A1F10B02F52A6BD257
:106D000080F8BC1069E0622D66D280F81C2364E034
:106D1000072D61D280F81D235FE002295CD280F844
:106D20001E135AE042F2107041430CEB4C00C0EBD2
:106D3000CC1001EBC00008EBC80101EB081100EB1F
:106D400081019BF8050000EB800001EB40009BF8FF
:106D500006100844B0F5803F3ED22249A1F85C06F7
:106D60003BE0012901D019B136E080F8729034E09F
:106D7000022180F8721030E0012901D019B12BE016
:106D800080F8709029E080F870A026E0012902D0F8
:106D900029B121E016E0134981F89F961DE01149C1
:106DA00081F89FA619E0012901D011B114E0552006
:106DB00000E0AA200B4981F89E060EE0094880F801
:106DC000D0260AE0A7F13201272905D8102E03D2D8
:106DD000384480F8B52200E001242046BDE8F09F49
:106DE000D8150020FC15002001218140024842688E
:106DF0008A43426070470000880000200449D1E9BE
:106E00000020904202D008600DF006B970470000E3
:106E100088000020012181400248426851404160C1
:106E2000704700008800002001218140024842682C
:106E300011434160704700008800002010B5002118
:106E400003231522084617F02DFE07494870FE2837
:106E500009D0FE2088700020C870C8710870142006
:106E60000A31088010BDFEE7400100202DE9F843FB
:106E70004E4D687817F0B0FD0A270024C8B1687835
:106E800017F0C4FD4FF00108002838D019F004F9BC
:106E9000E8606946687817F00FFA454E00B3E87964
:106EA0009DF80020411CC9B2E97132541F2910D04D
:106EB00010E0EC716F71EC703C4804702C71A87894
:106EC000FE2803D017F062F8FE20A8700120BDE86C
:106ED000F883EC716946687817F0EEF90028DED186
:106EE0009DF800000A281CD1E8793454EC7111F0A7
:106EF000E5FD3048006811F0CBFD687111E0E878DD
:106F000078B119F0C9F8E968401A2B49401A74F1B0
:106F1000000006D319F0C0F8E8600220687185F817
:106F20000380E87805283DD2DFE800F003243C3CEC
:106F30000700AC7119F0B0F8E860687817F086FDCA
:106F40000646DFF87890A87959F82000FBF7E6F9B3
:106F5000864202D20120BDE8F883A87959F82010B2
:106F6000687817F0D5FF687817F086F90D20A871BA
:106F700085F8038068790A2814D0FFF729FD0421D9
:106F800058B1A8790D2801D0E97003E0687902288A
:106F900000D1EC706F712C7104E0A8790D2801D03C
:106FA000E970CAE70120BDE8F88300004001002035
:106FB000482400206C24002020BF0200B8BD020835
:106FC00010B50C460146052206A0FBF7BCF928B90E
:106FD0000522214603A0FBF7B6F908B1002010BD39
:106FE000012010BD6D6569616E00000010B50128BB
:106FF00006D002281CD003281ED0092828D11EE064
:107000000EF086FF0DF08AF94FF47A74204621F0D5
:1070100019FD0DF083F9204621F014FD0DF07EF9E5
:10702000204621F00FFD0DF079F90EF049FF0FE039
:107030000420FDF7FFFB0BE000F010F808E0FEF77E
:1070400035F904480168044A01F4E0611143016024
:10705000012010BD0CED00E00400FA05704778B483
:1070600000250D8000950278431C002A2ED04FF693
:10707000FF743C2A02D0402A08D00DE09DF80000A1
:1070800040F00100009018460C8005E09DF800C01B
:107090004CF0020CCDF800C09DF800C01CF0030FAE
:1070A00003D1202A1AD02C2A18D02C2A0ED01CF05A
:1070B000010F04D01CF0020F01D03E2A06D00A882E
:1070C000521C0A8013F8012B002AD2D19DF800200F
:1070D00012F0020F00D10D8078BC70471846F1E71E
:1070E0002DE9F05F04460E466088002835D0FE2763
:1070F0007188328811442288114448401FFA80F870
:107100000025DFF888A1DFF880910AF51A7B89F85D
:10711000005005EB450000EBC5000AEB800090F83D
:1071200024100D2922D004291AD0B0F82700404598
:107130001CD115F035FE6088BBF81210884215D1BD
:107140002088BBF81010884210D13068DBF8181086
:1071500088420BD10120BDE8F09F0020BDE8F09FE0
:10716000B0F827006188884200D12F46681CC5B25C
:107170000E2DCCD3FE2F24D089F8007015F010FE10
:1071800099F8000000EB400101EBC0010AEB81001F
:10719000A0F827803E483268C0F89C217268C0F889
:1071A000A0213289A0F8A4212088ABF810006088C3
:1071B000ABF812005AF82100CBF80C000120BDE812
:1071C000F09F607B10F0020F07D0DFF8C880B8F89E
:1071D000380028B10020BDE8F09F0020BDE8F09FF6
:1071E000002505EB850008EB80010A8ACAB1638897
:1071F0009A4212D14989228891420ED158F8200032
:107200003168884209D118F04FFF05EB850108EB82
:10721000810148820020BDE8F09F681C85B2032DE3
:10722000DFD3002789F8007007EB470000EBC700A9
:107230000AEB800090F8250010F0080F1CD015F024
:10724000AFFDBBF812006188884215D105EB8500BF
:1072500008EB800530682860706868603089288194
:10726000208868816068E8606088288218F01CFFC8
:1072700068820020BDE8F09F781CC7B20E2FD1D3E2
:107280000020BDE8F09F0000AC0100208C4D0020E4
:10729000704E00202050002070B4844617480C68BF
:1072A0000068844202D1FF2070BC7047FF23144A5B
:1072B0000020BCF80250D689AE4208D19389BCF8B0
:1072C0000060B34202D11368A342EDD003461C32E2
:1072D000401CC0B21028EED3FF2B0CD0084AC3EBE1
:1072E000C30002EB800004604A68426009890181A2
:1072F000BCF80010818170BC18467047D15700203F
:107300006052002078B400250D8000950278431C5F
:10731000002A2ED04FF6FF743C2A02D0402A08D013
:107320000DE09DF8000040F00100009018460C8030
:1073300005E09DF800C04CF0020CCDF800C09DF8AF
:1073400000C01CF0030F03D1202A1AD02C2A18D019
:107350002C2A0ED01CF0010F04D01CF0020F01D01B
:107360003E2A06D00A88521C0A8013F8012B002AF4
:10737000D2D19DF8002012F0020F00D10D8078BC10
:1073800070471846F1E700B503460020D873184649
:1073900021F0FEFF0021585C20B1481CC1B20F292A
:1073A000F9D300BD0F29FCD220200A46491CC9B2DE
:1073B00098540F29F9D300BDF0B59FB016460C467E
:1073C00007467C2269464FF4A04014F0D5FB00200C
:1073D0006D46295CFF2903D0401CC0B27C28F8D33D
:1073E00048B145F25C0101EB40102022294614F01F
:1073F000C3FB002008E001201FB0F0BD3918401C7D
:10740000695C04F8011BC0B2B042F7D30020F3E777
:107410002DE9F0431746804638449FB00D4620289A
:1074200042D84FF4A0497C226946484614F0A4FB98
:1074300000246E46305DFF2804D0641CE4B27C2C2E
:10744000F8D301E07C2C0AD300242022314645F6F3
:10745000DC7014F091FB484614F016FB08E03CB1D8
:1074600045F25C0000EB44102022314614F084FB0E
:10747000002006E008EB000115F8012B401C7254B7
:10748000C0B2B842F6D304F5A04014F0F7FA572082
:1074900014F0AEFB45F27C0000EB441014F0EEFA61
:1074A0002021684614F0E0FB1FB0BDE8F083000027
:1074B00070B50E460446002512E0802801D92088C8
:1074C00040BA00F017F80246701908A120F0F4FC49
:1074D0002D1D2078ADB2802801D2641C00E0A41CD0
:1074E00020780028E9D17055284670BD25303458E1
:1074F0000000000030B500231A46802811D30B4C41
:107500009918490834F82150854203D9A1F10101A5
:107510008AB203E006D201F101018BB29342EFD9A6
:10752000002030BD04EB8100408830BDB4960208D5
:107530003FB50DA292E83800D26803928DE838007A
:107540006B460AE003EB121212780A7010F8012B56
:1075500002F00F029A5C4A70891C0278002AF1D16D
:10756000002008703FBD00003031323334353637EB
:1075700038394142434445462DE9F84301213D2035
:1075800011F030FC01214B4800F0ECF801214A4891
:1075900000F0E8F843F6F070ADF800001026474F11
:1075A0008DF8036002248DF802406946384600F0E9
:1075B0008DF84021384600F0F9F84FF44040ADF81E
:1075C000000048258DF803506946384600F07EF8E3
:1075D0000F20ADF800008DF8024000208DF8030068
:1075E0006946384600F072F84FF01808ADF8008090
:1075F00014208DF80300324F8DF80240694638465A
:1076000000F064F84FF47040ADF800008DF80360AE
:107610008DF802406946384600F058F84FF00109ED
:10762000ADF800908DF803508DF802406946384659
:1076300000F04CF82020ADF800008DF803506946AA
:10764000384600F043F849F20210ADF80000032775
:107650008DF802708DF803601A4E6946304600F0CE
:1076600035F84FF42060ADF800008DF802708DF809
:1076700003806946304600F029F86002ADF800004A
:107680008DF802708DF803506946304600F01EF800
:107690000420ADF800008DF8024028208DF803008A
:1076A0006946094800F012F807491031C1F8009006
:1076B000BDE8F883000130000002300000100140F6
:1076C000000C01400008014000140140F0B5CC78E6
:1076D000002204F00F03E40601D58C7823430C78D4
:1076E0004FF00F0C4FF0010EDCB105680E880EFA5A
:1076F00002F42640A64210D196000CFA06F725EABD
:10770000070703FA06F5CE783D43282E02D0482E0F
:1077100002D002E0446100E00461521C082AE5D373
:1077200005600A88FF2A1CD94468002202F1080675
:107730000EFA06F50E882E40AE420ED196000CFAD7
:1077400006F7BC4303FA06F7CE783C43282E00D157
:107750004561CE78482E00D10561521C082AE5D338
:107760004460F0BDF0B5104D6B68440D260184B245
:10777000C0F30157B440C0F30342032F05D0C00249
:107780000AD503209040834307E0686823F07062C5
:1077900020F07060686002E0A34343F0706201B1C2
:1077A00022436A60F0BD0000000001404161704763
:1077B0002DE9FC5FDFF8D4A2B34C0AF2CA50DFF81F
:1077C000D082B4F808C0019098F80C000025411E42
:1077D000D8F860200AF2FA532E464FF00F0B4FF004
:1077E0000B0E4FF47A77C9B242F480290AF22A6A62
:1077F0000093BCF1110F7DD2DFE80CF0090F1627C2
:107800002E3A414A516794CDD4E2F0EEED0022F4D5
:107810008040C8F860000120D0E03A4603219DA0D6
:1078200002F0D4F80220C9E098F802200323382A95
:1078300009D0B8F80420002A06D120B188F80C102D
:107840003A4694A001E123811AE13A46012197A02A
:1078500002F0BCF80420B1E098F80200162803D02A
:10786000B8F8040010B10BE10720A7E00520A5E05F
:107870003A46012190A002F0A9F806209EE098F86F
:1078800002003828F0D0B8F804000028ECD0F7E067
:107890003A4601218BA002F099F808208EE0B8F852
:1078A000041009200029B7D098F802102B2938D0ED
:1078B00098F802002C286BD098F80200322867D084
:1078C00098F90200401C76D1DAE081A18448FAF7E9
:1078D00047FD83480199FAF7EDFC6C4890F8FA05EA
:1078E00038B180A17E48FAF7E5FC7D480099FAF7A7
:1078F000E1FC00E0B9E0654890F82A0638B179A1CA
:107900007748FAF7D7FC51467548FAF7D3FC76A1C9
:107910007348FAF7CFFC3A460121714802F056F855
:107920000A204BE098F80210382931D0B8F804103A
:10793000002989D160B366A16948FAF711FD68484A
:107940000199FAF7B7FC514890F8FA0538B165A1EA
:107950006348FAF7AFFC62480099FAF7ABFC4B4872
:1079600090F82A0638B15FA15D48FAF7A3FC5146AA
:107970005B48FAF79FFC5CA15948FAF79BFC98F822
:107980000C003A46401EC1B288F80C1054485CE026
:10799000A4F808E074E03A46012154A002F016F879
:1079A0000C200BE098F802100D20382904D0B8F80C
:1079B000041019B164E026E0A8F8046020815FE0BB
:1079C000B8F8040000285BD13A460A213DA001F036
:1079D000FDFF0E20F2E722E018E0FFE798F8022012
:1079E0002E2A10D098F802202F2A0CD098F80220C6
:1079F000332A08D0B8F804204ABB20B188F80C100C
:107A00003A4630A021E0A4F808B039E03A463C21DB
:107A100039A0C8F8609001F0D9FF1020CEE798F89F
:107A200002304B2B03D0B8F804203AB128E026707E
:107A300022F400300125C8F8600017E040B1C8F812
:107A4000609088F80C103A462BA001F0BFFF17E0B9
:107A50002078401CC0B220700F2809D229A010F055
:107A60009BFF18F019FBC8F84C000225268107E09F
:107A700026702681032588F801602549C8F808107A
:107A80002846BDE8FC9F000018000020FC150020DF
:107A90004015002041542B51494D55583D313B2B49
:107AA00051494E44493D310D0000000041542B43E3
:107AB000474154543F0D000041542B434741545417
:107AC0003D310D0041542B514953544154450D0053
:107AD00041542B51495245474150503D0000000050
