:020000040800F2
:10400000004C02209D4100087DA20108FD680108C6
:104010005D980108FD4B0008593E020800000000B1
:1040200000000000000000000000000065F401082E
:10403000FF4B00080000000035BD0108B502020872
:10404000B7410008B7410008B7410008B741000870
:10405000B7410008B7410008B7410008B741000860
:10406000B7410008B7410008B7410008AD85000816
:10407000E5850008B7410008B7410008B7410008CE
:10408000B7410008B7410008B7410008B741000830
:10409000B7410008B7410008B7410008B741000820
:1040A000B7410008B7410008B7410008B741000810
:1040B000FD270208B7410008B7410008B7410008D2
:1040C000B7410008B7410008B7410008B7410008F0
:1040D000B7410008F93A0208B7410008B7410008A3
:1040E000B7410008B7410008B7410008B7410008D0
:1040F000B7410008B7410008B7410008B7410008C0
:10410000B7410008B741000839280208B741000844
:10411000B74100084D300208B7410008B741000818
:10412000B7410008B7410008B7410008B74100088F
:10413000B7410008B7410008B7410008B74100087F
:10414000000000000000000000000000000000006F
:10415000B7410008B7410008B7410008B74100085F
:10416000B7410008B7410008B7410008B74100084F
:10417000B7410008B7410008B93002089D9800080F
:10418000C59C0008DFF810D000F0BEF900480047D9
:104190006D1E0308AFF30080004C022006488047E4
:1041A00006480047FEE7FEE7FEE7FEE7FEE7FEE71C
:1041B000FEE7FEE7FEE7FEE7250702088541000867
:1041C000014610B509683C22B1FBF2F302FB131360
:1041D000B1FBF2F11D480360B1FBF2F302FB1313D4
:1041E000B1FBF2F118224360B1FBF2F302FB1313AF
:1041F000B1FBF2F183600A1D0723B2FBF3F403FB6A
:10420000142282618A0040F2B55102F66C32B2FB90
:10421000F1F344334361B2FBF1F301FB132189084D
:10422000C1613B2903D3027D920700D0491C0022C3
:10423000074C13460261E25C8A4203D8891A5B1C70
:104240000361F8E7491CC16010BD0000D4270220BB
:10425000B059030840EA01039B0703D009E008C9ED
:10426000121F08C0042AFAD203E011F8013B00F83B
:10427000013B521EF9D27047D2B201E000F8012B87
:10428000491EFBD270470022F6E710B513460A46D6
:1042900004461946FFF7F0FF204610BD421E12F8F3
:1042A000013F002BFBD111F8013B02F8013B002B31
:1042B000F9D1704730B505462A460B4612F8010B76
:1042C00013F8014B08B1A042F8D01CB1002802D06D
:1042D0006D1CF1E7284630BD10B5044604E00B78AC
:1042E00000F8013B03B1491C521EF8D2204610BD14
:1042F000CAB2401E10F8011F8A4202D00029F9D12B
:1043000000207047421C10F8011B0029FBD1801AC5
:10431000704710B5002200E0521C835C8C5CA34205
:1043200001D1002BF8D1D8B2E1B2401A10BD30B59E
:1043300004460020034600E05B1C934203D2E05C8D
:10434000CD5C401BF8D030BD034611F8012B00F8BE
:10435000012B002AF9D1184670472DE9F047914604
:104360000F4680460446002614F8015B2DB100F08C
:1043700077F80068405DC007F6D12B2D02D02D2DB7
:1043800018D0641E4A463946204600F06DF827B121
:104390003968A14201D1C7F8008071054FF00204CD
:1043A0000BD54042002803DD29F0F4FC0460A0078F
:1043B000BDE8F08746F48066E4E70028F8DA29F0E3
:1043C000E9FC04606FF00040F2E770B5064629F0A2
:1043D000E1FC046805460A2200213046FFF7BDFFD4
:1043E0002C6070BD70B5064629F0D4FC0468054603
:1043F0000A2200213046FFF7B0FF2C6070BD2DE986
:10440000F05F0546002092469B4688460646814658
:1044100040241BE0284641464746224600F095F8D6
:1044200053465A46C01A914110D3114618462246A7
:1044300000F07CF82D1A67EB01084F462246012058
:10444000002100F073F817EB00094E41201EA4F183
:104450000104DFDC484631462A464346BDE8F09F6A
:1044600000487047405A03082DE9F05F8246007803
:10447000002715468B460AF10104B946302801D0C1
:104480009DB113E014F8010B0127782803D05828B8
:1044900001D045B10AE00DB1102D07D1002710253C
:1044A00014F8010B02E0082500E00A250026B046BA
:1044B0000EE005FB080005FB06F1012701EB1046A5
:1044C0001FFA80F8B6F5803F00D3B94614F8010B07
:1044D000294600F04AF80028EBDABBF1000F05D0BE
:1044E0000FB1641E00E05446CBF80040B9F1000F54
:1044F00006D029F04FFC02210160C81EBDE8F09FE4
:1045000048EA0640FAE70000064C074D06E0E0687E
:1045100040F0010394E8070098471034AC42F6D30A
:10452000FFF734FEB0830308D0830308202A04DB9E
:10453000203A00FA02F1002070479140C2F12003B6
:1045400020FA03F3194390407047202A04DB203AF5
:1045500021FA02F00021704721FA02F3D040C2F1A3
:10456000200291400843194670473A2800D230385B
:1045700020F02002412A01D3A2F13700884201D362
:104580004FF0FF30704770B58C1810F8015B15F0D4
:10459000070301D110F8013B2A1106D110F8012BB5
:1045A00003E010F8016B01F8016B5B1EF9D12B07DA
:1045B00005D40023521E0DD401F8013BFAE710F890
:1045C000013BCB1A921C03E013F8015B01F8015B7D
:1045D000521EF9D5A142D8D3002070BDC943016055
:1045E00070470029816802D041F0010101E021F00B
:1045F00001018160704700002DE9F041394D95F8C7
:10460000590000285ED11EF05DFB374C6168401AEE
:10461000B0F5FA7F56D91EF055FB6060DFF8CC800C
:10462000002408EB040696F86832D80646D0304AD3
:104630000021084602EB041232F81070401CC0B290
:1046400039440828F8D3C80840F22E61A0F2F94096
:10465000884224D32F1997F83800C0062ED404F1CD
:104660002100C0B228F0A6FE96F8680200F01F00F4
:10467000072897F8380008D000071FD404F120005D
:10468000C0B202211BF02EF918E0010616D440F04A
:10469000800087F8380051201BF00EFE0EE003F07A
:1046A0001F00072810D0281990F83800C00605D53B
:1046B00004F12000C0B2022103F020FA641CE4B22D
:1046C000082CAED3BDE8F081291991F83800020614
:1046D000F4D520F0800081F8380051201BF0E0FE76
:1046E000ECE70000482F0020C0000020A027002099
:1046F00040370020014600208968490700D5012085
:104700007047C06C80B270470246002012680A42AF
:1047100000D001207047014600208968090700D5B4
:1047200001207047014600208968490200D5012018
:104730007047000010B542680E4B0C791A400B68A8
:1047400042EA04221343436082680B4B1A40D1E9CA
:10475000024323434C7942EA440213438360C26A12
:10476000097C22F47002491EC9B242EA0151C162B9
:1047700010BD0000FFFEF0FFFDF7F1FD70B507264C
:1047800009290AD9C568A1F10A0404EB4404A6402A
:10479000B543A3401D43C56007E0056901EB410433
:1047A000A640B543A3401D4305611F23072A09D234
:1047B000446B521E02EB820293409C4391400C4397
:1047C000446370BD0D2A09D2046BD21F02EB820232
:1047D00093409C4391400C43046370BDC46A0D3AFE
:1047E00002EB820293409C4391400C43C46270BD33
:1047F000816841F0080181607047000070B5304E5B
:1048000002213046FFF780FF2E4D01280BD028688B
:10481000E0B31EF057FA2968884238D91EF052FAE0
:104820002968411A38E002213046FFF7D7FE3046AA
:10483000FFF767FF244C072394F8901094F8912019
:1048400004EB011121F8120014F8900F401CC1B2C2
:104850000920B1FBF0F200FB12101A492070083158
:104860000122095C3046FFF789FF14F8900928B946
:1048700014F8910F401C00F0070020701EF022FA7F
:104880002860002801D1401E286070BD0CE01EF099
:1048900019FA2968411A491E052902D90020286001
:1048A00007E028680028F0D13046FFF73BFF0128D9
:1048B000EBD03046BDE87040012100F007B80000A1
:1048C00000240140C00000204037002000298168FA
:1048D00002D041F4A00101E021F4A0018160704701
:1048E000816841F004018160704700000548FF21A4
:1048F000017141718171C171017241724FF0FF31DB
:10490000016070475E6A002010B50C4A00681268AA
:10491000824208D00A4B9C68A2420DD11A684240DC
:104920005868024208D005480A38D0F80E200A60BC
:10493000408A8880012010BD002010BD5E6A0020E2
:104940009ABF002030B5294D294C87B0287810B186
:10495000012848D135E01C21684614F087FC14F08A
:1049600069FC68461BF0B6FABDF8000001283AD190
:104970009DF80400062836D19DF80500042832D1A0
:10498000BDF80600022802D001280BD019E00298D9
:10499000C4F80E00BDF80C006082DDF80E00C4F80B
:1049A0000A0020E013490698096888421BD1DDF807
:1049B0000E00206002986060BDF80C00208101208C
:1049C00028700220ADF806006068CDF8120020893A
:1049D000ADF8160020680690684600F00DF8002833
:1049E00002D000202870012007B030BD4201002015
:1049F000546A00209ABF002010B5044614F0A4FCAD
:104A00000028FBD0002014F011FD01202080C002FE
:104A1000608006202071042060710D48D0F82D10B0
:104A2000A160B0F83110A1810068C4F80E002046E2
:104A30001BF050FA1C22062104F1120014F0C6FCEF
:104A40001C21204614F0B0FC14F0F6FB012010BD30
:104A50009ABF002000B587B00121ADF80610FF21F4
:104A60008DF814108DF815108DF812108DF81610A1
:104A70008DF813108DF81710064900680A684B6806
:104A800042401A4200D0886806906846FFF7B4FF9B
:104A900007B000BD9ABF0020094991F858000028CE
:104AA0000DD0401E10F0FF0081F8580007D10868B3
:104AB00040F4806008600D21002014F019BF704799
:104AC000482F002070B51D4C0023022201212046F2
:104AD0002AF0CEF800230222042120462AF0C8F84A
:104AE00000230222082120462AF0C2F8144D002398
:104AF0000222012128462AF0BBF8002302220821C5
:104B000028462AF0B5F800230222202128462AF060
:104B1000AFF800230222402128462AF0A9F80023FA
:104B20000222802128462AF0A3F82046BDE87040E2
:104B30000023022210212AF09BB80000001001403F
:104B4000000801400248002100F8901F41707047A2
:104B50004037002010B5FFF751FEBDE81040FFF7C9
:104B60004BBD0000174B10B59878174900EB80003B
:104B70001A8831F82000824223D0002000EB800404
:104B800031F82440A24218D1987000EB800001EB6C
:104B900080000E4C01692162C06801211FF0A8FA53
:104BA0000B4801214160017E41F0010101760020A6
:104BB0006077BDE8104000F023BC401CC0B2C8289C
:104BC000DCD310BD6A000020C4320308D0300020BE
:104BD000603E002010B5437804785B1C03F01F038F
:104BE0009C4203D1641C04F01F04047000EB4304D6
:104BF000A170E2704370012010BD7047FEE770475E
:104C00003625261987030847160000002DE9F05FB6
:104C10001EF058F8F84C2168884207D01EF052F870
:104C200020606068012801D9401E6060606801282A
:104C30007ED100206060207EF04F411C61F30000B7
:104C40002076388840F22A320A26ED4DDFF8B48308
:104C5000A0F22A314FF416794FF4FA7B904268D0D3
:104C600074DC40F2CD12A0F2CD119042F7D036DCC8
:104C700040F23712A0F2371190427DD01ADCE728BB
:104C80000CD00CDC792829D004DC5A2875D06F2888
:104C900074D1ECE0D328F3D0DD286FD155E1F128B1
:104CA000FCD0FB286BD0A0F58070053801D00A2815
:104CB00064D1B8E16429E0D008DC0A29DDD01429E8
:104CC00075D01E290AD0282958D13EE16E29D4D0AA
:104CD0007829D2D08229D0D08C294FD11AE1FA2953
:104CE00027D014DC5A2908D008DC322977D03C2997
:104CF00076D0462974D0502940D10BE1642918D0D0
:104D00006E2916D0782914D0F92937D102E140F262
:104D10000F12A1F20F1091420ED00EDCA1F580719E
:104D2000033909D0012904D00A2902D00B2902E055
:104D300072E20AE00AE021D1ECE0012850D002281A
:104D400003D008287AD0092818D1CEE041F22252A7
:104D5000881ADFF8B4A2914270D042DC41F20B42D3
:104D6000A1EB0200914221D022DC1E291ED010DCD2
:104D700001297AD0022903E05FE0F1E267E050E127
:104D8000F7D0DFF888821E250A296FD014295ED15A
:104D9000C2E2A1F58071913965D001F6A451B1F557
:104DA000005103D00A291BD0142950D19DE03EE1C7
:104DB000B3287DD008DC0A287AD0142810D0A9287E
:104DC00076D0AA2843D125E1B42872D0BD286FD06F
:104DD000A0F580700D3831D0012838D11AE197E064
:104DE000B3E0B0F5C37F16D016DC642826D008DC0B
:104DF00001285ED00A2821D05A281FD05B2826D14E
:104E0000EEE0BE281AD0BF2805D0C82816D0A0F5DD
:104E1000807023381BD1FDE040F6BC62A0F6BC6177
:104E200090420AD00BDCA0F560606A3870D00A2886
:104E300070D00B2817D0512809D1F6E06AE001297B
:104E400067D0022965D0032964D004294DD013F01E
:104E5000D7FE3888B0FBF6F106FB1101BDE8F05F24
:104E60004C2004F0DDB8042702E0D7E11EE206275B
:104E700013F0C6FE98F81D00411CCDB2BD4200D90A
:104E8000054610B9207EC0070AD00B214C2004F043
:104E9000C7F898F81D00012802D1207EC0070DD068
:104EA0000B21542004F0BCF898F81D00022801E002
:104EB0001BE0B4E002D1207EC0070AD00B215C20A9
:104EC00004F0AEF898F81D00032802D3207EC00736
:104ED00001D00B21F5E0B5FBF6F16C2004F0A0F851
:104EE000B5FBF6F006FB1051DEE113F089FE207EE3
:104EF000C00704D098F800104C2004F091F800216D
:104F00006C2004F08DF80121CEE104F089F881E1F4
:104F1000DBE08AE013F074FE98F81D00454610B1FE
:104F2000012808D04DE0207EC0070BD029784C2006
:104F300004F076F806E029784C2004F071F8207E21
:104F4000C0073ED06978542039E013F059FE98F834
:104F50001D000327B0FBF7F107FB1101454611B90E
:104F6000217EC90707D0B0FBF7F000EB4000295CB9
:104F70004C2004F055F8687FB0FBF7F107FB1101F6
:104F8000012902D1217EC90708D0B0FBF7F000EB60
:104F9000400028444178542004F042F8687FB0FB78
:104FA000F7F107FB1101022902D1217EC90708D0C0
:104FB000B0FBF7F000EB4000284481785C2004F05F
:104FC0002FF8687F401CB0FBF6F0C1B26C2004F0F3
:104FD00027F8687F401CB0FBF6F106FB110163E186
:104FE0009AF80300400613D513F00AFE207EC0078E
:104FF00079D00B214C2088E7603E00206A00002019
:1050000088510308D0300020482F0020C432030804
:105010000A270DE0DAF8000010F0C05FE4D109279C
:1050200006E0052704E0082702E0122700E0042735
:1050300013F0E6FD98F81D00411CCDB2BD4200D929
:105040000546052D28D205F00707012F02D1207E45
:10505000C00704D098F800104C2003F0E1FF022FA5
:1050600002D1207EC00704D098F80110542003F02C
:10507000D7FF032F02D1207EC00704D098F802107A
:105080005C2003F0CDFF042F03D1207EC0073FF446
:1050900022AF98F8031014E008EB05074C2017F82E
:1050A000041D03F0BDFF7978542003F0B9FFB978EF
:1050B0005C203F1D03F0B4FF207EC007E7D017F847
:1050C000011C642003F0ACFF05E713F099FD98F88C
:1050D0001D00464610B9207EC00705D03078285CF8
:1050E00040F0100101E095E01021182022F0E8FBCB
:1050F000707F012802D1207EC00704D07078285C20
:1051000040F0100100E01021202022F0D9FB707F38
:10511000022802D003280ED10AE0207EC00704D066
:10512000F078285C40F010010DE0F078295C0AE08E
:10513000207EC00703D0B0780128F6D1F0E7B07820
:10514000012809D11021002022F0BAFB707F042829
:1051500002D1207EC00704D03079285C40F01001D5
:1051600000E01021082022F0ABFB707F052802D15F
:10517000207EC00704D07079285C40F0100100E068
:105180001021102022F09CFB707F062802D1207E87
:10519000C0070AD0B079295C4C2022F091FB707FC7
:1051A000072802D1207EC0070AD0F079295C54205C
:1051B00022F086FB707F082802D1207EC00704D031
:1051C000307A285C40F0100100E010215C2022F0D1
:1051D00077FB707F092802D1207EC0070AD0707A41
:1051E000295C642022F06CFB707F0A2802D1207EAB
:1051F000C0070AD0B07A295C6C2022F061FB707F76
:105200000B2802D1207EC00704D0F07A295C7420DC
:1052100022F056FBC4F80490BDE8F09F13F0F0FCB8
:1052200098F81D00C246411CCFB2042F00D9074692
:1052300007F00708B8F1010F02D1207EC00704D0A3
:105240009AF800104C2003F0EBFEB8F1020F02D1E7
:10525000207EC00704D09AF80110542003F0E0FE2D
:10526000B8F1030F02D1207EC00705D09AF80200E2
:10527000285C40F0100100E010215C2022F020FBAF
:10528000B8F1040F02D1207EC00704D09AF80310B1
:10529000642003F0C5FEB7FBF6F16C2003F0C0FEFE
:1052A000B7FBF6F006FB107174202EE6B87980B1DA
:1052B000012835D821D101F019FA4C494FF48070FA
:1052C0000860B87800EB800108EB8100C088388066
:1052D00013E008F0D5FB80B9BD71BAF8000010F4F6
:1052E000C04F04D14248017841F001010170414AA8
:1052F00041494FF0000001F0F1FAB8794008B0FBE5
:10530000F6F14C2003F08CFEB8794008B0FBF6F1C2
:1053100006FB1101542058E0B879A0B1012803D947
:10532000A0F10100B871E8E703D008F0A9FB00285C
:10533000E3D1B87800EB800108EB8100C0883880A9
:105340001EF03EFFD9E708F09BFB0028D5D1BD71C8
:10535000062004F0AFF9012128481EF0C9FECCE771
:1053600013F04EFC98F81D00454610B9207EC0078A
:1053700009D029784C2003F053FE687F012802D120
:10538000207EC00703D06978542003F049FE0B212A
:105390005C2003F045FE7879E0B1207EC00704D0A0
:1053A000687F295C642003F03BFE687F401E90FB11
:1053B000F6F0C1B26C2003F033FE687F401E90FB14
:1053C000F6F106FB1100C1B2742003F029FEC4F807
:1053D00004B021E700216C2003F022FE002174209C
:1053E00003F01EFEA9786420EFE7000014180140C6
:1053F0004800002051670008B99300080D4F0308CA
:105400002DE9F84FDFF8F4B340F2DD2C5B46BBF832
:105410000000DF7893F80490791CFA4BF84C0A25C9
:10542000A0F2DD224FF0640A01F0FF0E03EB8706C5
:10543000604576D076DC40F2B912A0F2B911904204
:1054400071D074DCFB2870D027DC6F286ED00FDCA5
:10545000502804D004DC0C28FBD046284DD1E2E1D2
:105460005A2872D0632848D1BDE8F84F05F02CB90E
:10547000DD286BD006DC792869D0D3283DD1D3F85C
:105480004A1005E0E72875D0F12836D1D3F87F100F
:10549000BDE8F84FDA4811F0B5BE40F25512A0F25F
:1054A0005511904267D033DC40F23712A0F2371129
:1054B000904271D023DCA0F5807005386DD00A28A9
:1054C0001BD193F9BF00002868D03038207013F842
:1054D000C00F3038607058783038A0709878303805
:1054E000E070D87830382071187930386071587988
:1054F0003038A07198793038E071BDE8F88F0A290A
:105500007ED01429F9D1BF48D0F8EF002060F4E72D
:105510000A2976D0462975D0502974D05A29ECD161
:10552000D8E16AE258E0D3E101E095E173E1A9290D
:1055300031D021DC642967D011DC462979D007DC21
:105540000A2977D01429D8D154E190E27EE16FE0A6
:10555000502970D05A29D0D193F841014FE26E29D9
:105560006AD0782969D0822968D08C29C5D193F86E
:1055700046017AE26DE1D0E140F21713A24AA1F2AE
:105580001710994254D014DCC72904D007DCB32982
:1055900001D0BD29B1D146E18BE182E1B8E1A1F5AD
:1055A00080710D3944D00129A7D1B85C00F01F00EB
:1055B0005BE2012870D00A286FD00B286ED00C282F
:1055C0009BD196F86D02B0FBF5F12170B0FBF5F1BF
:1055D00005FB1100607090E78C4941F2655CDFF8D3
:1055E00024820968A2EB0C0021F0C05101F1006196
:1055F000009182496245C97801EB4101414404E0D0
:105600005BE18DE1E9E0F8E093E111D062DC41F289
:105610003A4CA2EB0C00624573D030DC4F2A71D0BB
:105620001EDC082A6FD00ADC012A6DD0072AD2D1ED
:1056300000E187E04DE179E17EE180E182E14D2A00
:105640003CD04E2AC7D196F88C02B0FBF5F1217000
:10565000B0FBF5F105FB1100607096F88D02F1E1E9
:105660006B2A7DD004DC572A7BD0612AB3D1F6E1C6
:10567000A2F58072033A75D0DB2AACD1D0E0C728FE
:105680001CD013DC1E286ED009DC0A286CD014282C
:10569000A1D193F84901E8E1A8E10FE0AAE12828A7
:1056A0007ED0322897D193F84C01A8E1C82878D051
:1056B000D12803D0D22875D0DB288CD1594670462A
:1056C0008BF803E04A46CE4502D9104681F8039094
:1056D000C0B2CAE140F22D1CA0F22D12604575D077
:1056E0001CDC652873D010DC0B2871D004DC012889
:1056F00057D00A289BD19DE0142801D0642896D168
:1057000098E022E192E18EE18AE16E2805D0C82876
:1057100003D0C92845D0D22889D18BE040F65D510D
:10572000A2F65D508A4268D05CDC40F65151A2F688
:1057300051508A427ED04CDC632A32D0A2F55062AE
:10574000473A93D132480178B1FBF5F22270B1FBB0
:10575000F5F205FB121161704178B1FBF5F204E03E
:1057600081E178E15FE0F6E0F2E0A270B1FBF5F2F2
:1057700005FB1211E170817801F01F01B1FBF5F218
:105780002271B1FBF5F205FB12116171C178B1FB19
:10579000F5F2A271B1FBF5F205FB1211E17102E025
:1057A000DCE0DEE0E1E00179B1FBF5F22272B1FB71
:1057B000F5F205FB121161724079B0FBF5F1A172AF
:1057C000B0FBF5F105FB1100E07296E6FAE0F3E0BC
:1057D000DAE0012824D00B28F7D10A491222F63149
:1057E00007487BE0012875D002287AD03F2870D086
:1057F0004028EAD193F83F0137E163E06A000020D6
:10580000D0300020A0270020E7290020482F0020CA
:105810005E0000200EE0586820601889A0806CE6C9
:10582000D6F8060072E600218BF80310FF218BF8F2
:10583000041062E6594670468BF803E04A46CE45AE
:1058400002D9104681F80390C0B2BCE6D3F85210DA
:105850001EE6D3F84E101BE6B3F8B40042F2107106
:10586000B0FBF1F22270B0FBF1F201FB12024FF437
:105870007A71B2FBF1F26270B0FBF1F201FB12023D
:105880005146B2FBF1F2A270B0FBFAF20AFB120130
:10589000B1FBF5F1E170B0FBF5F105FB11002071F2
:1058A0002BE693F9B60098B33038207013F8B70F91
:1058B0000FE612227149724810E07049122212312B
:1058C0006F480BE06D4912223D316D480DE001E05B
:1058D00007E028E0694912224F316948FEF7BAFC17
:1058E00005E06649122261316548FEF7B3FC0020ED
:1058F00002460E23012A0CD0215C50290BD0092925
:1059000001D925540122401CC0B21228F2D3F4E57B
:105910004CE02554F7E72354F5E793F8F30052E6FB
:10592000B3F8F4006BE093F83E014CE693F84001C5
:1059300065E093F8420146E693F8430143E693F8A5
:10594000440192E093F845018FE093F847018CE021
:1059500093F8480153E093F84A0186E093F84B012D
:1059600083E0484800990160C7E57F1E03EBE7002C
:1059700007F0070390F8502101209840024215D00B
:105980003F4801F255110DE0FF1D03EBD70007F072
:10599000070390F8502101209840024206D0384871
:1059A00001F26D11BDE8F84F21F0A2BEBDE8F84F3D
:1059B00009213348FEF767BC3248C17841F0400105
:1059C000C1709AE593F857010B2220F0010083F88B
:1059D000570109212A48FEF74FFC2A490098086020
:1059E000BDE8F84F2849E12021F08CB8B85CC0F33D
:1059F00041103AE096F86C02E5E596F86E025146E1
:105A0000B0FBF1F22270B0FBFAF20AFB1201B1FB1B
:105A1000F5F16170B0FBF5F105FB1100A0706CE5CC
:105A200096F86F0221E01948385C1EE096F88E0265
:105A3000B0FBF5F12170B0FBF5F105FB11006070D2
:105A400096F88F02B0FBF5F1A170B0FBF5F105FB04
:105A50001100E07051E50E494FF48070086000209D
:105A60008BF8060049E593F8E202207045E5002036
:105A70008BF8050025706570A5703EE56B28002049
:105A8000D0300020482F002061980108822A002091
:105A90001018014070B5114C05462168480701D423
:105AA000480608D521F04000002120606171C4F84B
:105AB000461084F84A10002001F082F8284601F0D0
:105AC00079FF208810F4C04F06D10549087840F0CE
:105AD000040040F00400087070BD0000482F002052
:105AE000480000202DE9F04F07465648DFF85C914A
:105AF000DFF85CA10279544893B000EB4105012A1C
:105B000029D0182102A8FEF7BEFB4AF65520ADF8B1
:105B1000080049F21000ADF80E001020ADF80A00A0
:105B2000A8788DF81A00E97809EB8100C4788378A9
:105B3000CDE90034437819F8212046A10DF1120077
:105B400028F014F9FF208DF81B0000231AF8370005
:105B5000182202A96EE04348414C90F82503002822
:105B60006DD0414EA8780EA9401EC0B227F02FFE7E
:105B70003C4866308046FEF7C5FB8346E87806EB76
:105B8000800050F8040CFEF7BDFBAB7801460DF128
:105B9000380C3648CDE90A3CCDE90CB890F80280C3
:105BA0004279037990F803C008F01F08CDE9083264
:105BB000CDE9068C42780378E87806EB800555F845
:105BC000045CCDE90432CDE9021509EB8001CD7802
:105BD0008B78CDE9003519F820204B7804F11000BE
:105BE0002349064628F0C2F805460146304622F011
:105BF0008DF920A0211D00682060284613F090FF39
:105C00003022042104F10800FEF736FB3022042183
:105C100004F10C00FEF730FB60191030462204211D
:105C2000C4F83002FEF728FB1AF83700002305F10C
:105C3000140221462CF0BAFE13B0BDE8F08F0F4ECF
:105C400090E7000054020020A82F00202032030813
:105C500050C50020256425642564256400000000EB
:105C600038C30020A0270020644503085E00002000
:105C7000287E030840616C4100000000C444030812
:105C80002DE9F14F9148ADF5267D4FF0000890F8D1
:105C9000009081208DF80C008D488DF82480DFF86D
:105CA00034B2C0795C4600EBC0000BEB40000DF154
:105CB0000E01F63016F072F894F825238649DFF8C5
:105CC0001CA209A8A5909AB1854849680279C378B1
:105CD0000093CDE901218178427801F01F0381A171
:105CE000A59828F043F800208DF80D00A026AFE01D
:105CF0000A6881A128F03AF808208DF80D004626A0
:105D0000A6E009F1010000F01F05704800EB450412
:105D1000E078292873D2DFE800F09A1515151515DB
:105D20001515157E7E7E7E7E7E7E1515157E7E7E09
:105D3000157E7E157E15157E7E7E1515151515159D
:105D400015151500A078411E272904D8C8B295A9B9
:105D500027F03DFD05E0F0B1292825D000208DF881
:105D600054029BF825030028A59829D0FEF7CAFA0B
:105D7000074695A8FEF7C6FAE17807440AEBC1008A
:105D80004068FEF7BFFA3844B04239D295A9A598C9
:105D9000FEF784FA50E09BF825030028574801D00D
:105DA000416807E0016805E09BF825030028534897
:105DB00004D0C16895A8FEF7C7FAD2E78168F9E771
:105DC00007F026FE074695A807F022FEE178074473
:105DD0005AF8310007F01CFE3844B04204DA95A9A5
:105DE000A598FEF75BFA4AE0B8F1000F34D1002421
:105DF0008DF8244095A9A598FEF750FA49E026E0D1
:105E0000B8F1000F28D100248DF8244095A9A59859
:105E1000FEF744FA4AE09BF825030028A59823D012
:105E2000FEF770FAE17807460AEBC1004068FEF71A
:105E300069FA3844B04233D2E1780AEBC1004168D4
:105E4000A598FEF72BFA08F1010000F0FF08A9461B
:105E5000A69989457FF455AF03A808F0EFFC0DF52E
:105E6000277D4846BDE8F08F07F0D2FDE178074670
:105E70005AF8310007F0CCFD3844B04203DAE1783B
:105E80005AF83110DCE7B8F1000FE5D100248DF8A5
:105E900024400E4800EB4500C1785AF831100CE060
:105EA000B8F1000FD8D100248DF82440074800EB4A
:105EB0004500C1780AEBC1004168A598FEF7EEF9EC
:105EC00003A83044A946C475C6E700006E30002020
:105ED00078020020A0270020644203087C420308C7
:105EE0005E000020253032642D25303264202530BC
:105EF00032643A2530326420257300006C42030876
:105F00002DE9F04113F004FA00283AD0002147F2BD
:105F10005F6340F62C3208461DF0DEF90646FF2886
:105F20002FD030461DF0C0F90028FAD00F211648B6
:105F30001DF09EFA0D201DF085FA0A201DF082FA50
:105F4000114F00241C3F3D1915F82D0F28F0BFFB01
:105F50001DF078FA287828F0C1FB1DF073FA641C54
:105F6000E4B2062C03D02D201DF06CFAEBE707A05D
:105F70001DF098FA1DF0F6F83046BDE8F0411DF02E
:105F8000CDB8BDE8F0810000B6BF00200D0A44483E
:105F900043502F506F776572206576656E74206F61
:105FA0006363757272656400014900204870704730
:105FB000400100202DE9F05F834608789A4691461B
:105FC000884610B10020BDE8F09F1426104F002431
:105FD00007EB04152868FEF795F90246584629682C
:105FE000FEF7A5F928B1641CB442F1D34FF0FF309D
:105FF000E9E707EB041440466168FEF7A5F9484657
:10600000A168FEF7A1F95046E168FEF79DF9D9E7CE
:106010002857030870B51D4D05F12206E879401C8C
:10602000E8713079A979884202D0A8710021E9711C
:1060300017490978C943890726D0EA79042A23D267
:10604000F17809B900281FD0124C04EB820292F8B3
:1060500090328B4206D192F89112814202D15020A7
:106060001AF02AF9E879F27804EB800090F892129D
:10607000914209D190F893023179884204D1BDE868
:10608000704050201AF00CBA70BD00003C00002097
:10609000482F0020A02700202DE9F0410746164692
:1060A00088460846FEF72EF9C5B2AE420CD300244E
:1060B00007E038192A464146FEF739F938B1641C21
:1060C000A4B2301BA842F4DC0020BDE8F0813819EE
:1060D000FBE700002DE9F05F964FB879F0B3DFF8E9
:1060E00058920B287ED0DFF85482954C00254FF44F
:1060F000A07A4FF4207B0C283ED00D283AD1387975
:10610000904E410729D520F00400387196F88B078E
:106110000321401CC0B2B0FBF1F201FB120086F873
:106120008B070021484602F06FFA202002F078FA2F
:10613000C4F80080C4E9025A96F88B07256200EB88
:10614000800006EBC0100A3060602146484602F02D
:10615000D3FA0121484602F057FA00E003E038790B
:10616000C1074ED14BE010F013FDB86800B1804775
:106170000C20B871BDE8F09F00F0F2F86D484FF4C4
:1061800000611430FEF77FF800214E46484602F0C9
:106190003BFA202002F044FA6A4844F8048B0A30A3
:1061A000A4E82104664925613046103C02F0A4FAB7
:1061B0000121304602F028FA5F4D0021143D2846A7
:1061C00002F022FA022002F02BFA5F482060102031
:1061D000C4E9020B57485A491430606020202062FD
:1061E000284600E090E002F087FA0121284602F0FC
:1061F0000BFA0D20B871BDE8F05F02F06FBF8107A8
:10620000B8D5524C94F8911101290AD049484FF45D
:10621000A0611430FEF737F8387920F003003871A8
:10622000A8E7810709D594F88C015A4600EB800055
:1062300006EBC0113F48143009E0C0070BD094F8BA
:106240008C015A4600EB800006EBC011404801F279
:106250008C71FDF7FFFF94F88C01401CC0B284F8EC
:106260008C01322807D384F88C5194F8900110B136
:10627000401E84F8900194F88C114FF03208B1FB65
:10628000F8F208FB121084F88C0194F88F2194F82E
:106290008E118A4225D001EB810006EBC01048F236
:1062A0008C41014494F88D015A4600EB800006EBC6
:1062B000C01000F28C7004F28D14FDF7CBFF207833
:1062C000401CC1B24046B1FBF0F208FB1211217034
:1062D0006178491CC9B2B1FBF8F208FB121060707A
:1062E0009AE794F89011002996D194F88D1188427C
:1062F00092D184F8915184F88C5184F88D5184F8AE
:106300008E5184F88F5187E70021484602F07CF9CE
:10631000202002F085F90748383800F063F80D4A6C
:106320000D49002000F0DAFABDE8F05F01210B48CA
:106330001DF0DEBE80FE01201C0002400C700140FA
:1063400068030020B0FA00200C3C0040B0FA0120A5
:1063500014010220E9640008CD9200080D4F0308E3
:106360000020094B024600EB002103EBC101401C59
:10637000C1F80028C0B281F804280228F3D30348EA
:10638000427402747047000094FE0120940E0220B3
:106390000E490F4AC868904207D188680D49884263
:1063A00001D102207047012070470B49884201D17A
:1063B000032070470949884201D1042070470849E9
:1063C000884201D1052070470020704780FE0120DF
:1063D000E9640008F1910008516700080D690008A0
:1063E000D560000810B5164A16A101240968D160CD
:1063F000436802F10C012C334B6014A31B685361FA
:1064000014A31B68936110230B618C82CC824FF420
:10641000FA548C616400CC6102240C844B840FA379
:106420001B68136342688A6280682C3818F0A6FCE7
:1064300003482C21BDE810400C3018F003BE0000CA
:1064400048FE01205249464600000000574156458B
:1064500000000000666D742000000000646174613B
:106460000000000070B51E4CA4F58055607C00EB68
:10647000002005EBC00090F80418C9072FD1A5F142
:106480004C024FF480635168012621B11268511A01
:10649000994203D8022180F8051801E080F80568C8
:1064A000607C104900EB002005EBC002A1F10C005C
:1064B00028F052FB617C002801EB012105EBC101B2
:1064C000C1F80008617C01EB012105EBC10106D098
:1064D00081F80468607C401C00F00100607470BDAD
:1064E000940E022054FE01202DE9F05F744D754C8E
:1064F0000126A879B8B3DFF8D091744F4FF4006B40
:106500004FF00308012840D0394603280A697DD09E
:1065100004287CD16E4E05F1140A307C00EB00217A
:106520000AEBC10191F80408C00771D02F79B807B0
:106530006FD4F8076BD05A4609F50060FDF78AFE64
:1065400027F003002871FFF78DFF307C002100EB5E
:1065500000220AEBC20080F80418307C401C00F0D6
:106560000100307499E0FFE71CF0ACFB286010F0EC
:106570000FFBA86800B18047AE712068400C80070F
:1065800068D4BDE8F05F02F0A3BD387E20F00800BB
:1065900038761DF0EBFD4F4E012812D02879810688
:1065A00058D520F02800287120684FF4FA4120F4D3
:1065B000003548462560FDF766FE15F4F01F34D01F
:1065C00035E085F80680287940F020002871387E73
:1065D00040F008003876FFF7C3FE3F49A8688842BC
:1065E0000AD12068810207D42979090704D440F42C
:1065F0000030206002F072FD0021304602F004F805
:10660000022002F00DF83548354903E015E021E09D
:106610003AE036E008601020C1F80CB0C1E9019002
:10662000304602F069F8012102E002F051FD00213C
:106630003046BDE8F05F01F0E7BF1278FF2A08D0CE
:10664000FE2A09D01E492C39A1F10C0028F034FA99
:1066500048B1AE71BDE8F09FBDE8F05F214A224924
:10666000002000F03BB90024FFF7FCFE641CE4B2FC
:10667000022CF9D30420A871287920F00300287196
:10668000E8E75A46484659E7521C3A611CF01AFBA3
:106690002860FFF765FE85F806801DF067FD01287C
:1066A000D8D12068800204D42879000701D502F0EF
:1066B00015FD85F80680BDE8F05FFFF751BE0000CC
:1066C00080FE0120482F00203C02012040340020A1
:1066D000940E022008000240CD9200080C3C0040BD
:1066E0006803002051670008B993000801490B2096
:1066F0008871704780FE012070B5144C4FF480669D
:10670000A4F58055207C324600EB002005EBC0004C
:10671000014600F067F9207C324600EB002005EBD3
:10672000C001A5F14C0028F05FFA207C401C00F06D
:1067300001002074A5F14C00D0E90010081AB04205
:1067400001D2012070BD002070BD0000940E022017
:106750002DE9F05F584D0026DFF86081A879DFF859
:1067600060A1584C4FF4806905F1140B092836D00C
:1067700010DC48B308280BD11CF0A4FA2968401A91
:10678000642805D950494FF4807008600920A87129
:10679000BDE8F09F0A2862D00B28F9D100214046BD
:1067A00001F032FF202001F03BFF43483838FFF76B
:1067B00019FE10F0EDF902F089FDBDE8F05F434AE3
:1067C0004349012000F08AB810F0E2F9A86800B14E
:1067D00080470820A8711CF075FA2860D8E7FFF7F9
:1067E000BFFD35480021383828F0E8F9002140463F
:1067F00001F00AFF202001F013FFA660C4F80C90FE
:106800004E465F462F494046C4E900AB01F074FF95
:106810000121404601F0F8FE27484FF40061143092
:10682000FDF731FDDFF894800021A8F114084046FF
:1068300001F0EAFE022001F0F3FE2648206010205D
:106840006760C4E90206202020621E49404601F02C
:1068500053FF0121404601F0D7FE0A2097E728792F
:10686000410795D51C4F20F004002871787C002149
:10687000401C00F001007874404601F0C5FE202065
:1068800001F0CEFEC4F800A0C4E90269787C26625B
:1068900000EB00210BEBC10060600A49404601F0AB
:1068A0002BFF0121404601F0AFFEFFF725FF002836
:1068B00094D00B206BE7000080FE01201C000240FA
:1068C0000C7001406803002010180140E9640008C2
:1068D000CD9200080C3C0040940E022070B50D468D
:1068E000044616460021074801F08EFE05480021A7
:1068F000143001F089FE1DF0E9FB034B9C71C3E9E4
:10690000025670BD0800024080FE012070B5134C95
:10691000A079002820D1A06800B1804702F0DEFBFA
:106920000F4D0021284601F06FFE022001F078FE95
:106930000D490C480D4A086010208860C0014A606B
:10694000C86020200862284601F0D6FE01212846B2
:1069500001F05AFE0120A07170BD000080FE0120F0
:10696000080002400C3C0040680300203C0201206B
:1069700010B5094A09490020FFF7B0FF0121084876
:106980001DF0B6FB074C207940F0080020711CF088
:1069900099F9206010BD0000E9640008CD9200085C
:1069A000C44E030880FE01200248C068002800D0C1
:1069B0000047704780FE012010B54FF0FF3313EB06
:1069C00042020ED402EBD27323F0010303441C886D
:1069D00021F8124001EB42041B8824F8023C921E6D
:1069E000F0D510BD30B5002307E003EBD37530F8C8
:1069F000134025F001059B1C6C529342F5D330BD2A
:106A0000014908607047000088860D42034A1188DA
:106A100021F4607101431180704700002C6C00402C
:106A200008B5024908440090008808BD006C004089
:106A3000034A118821F07F01014311807047000053
:106A40002C6C004008B5024A10440090016008BD5B
:106A5000006C0040F0B50646002528462AE016F8EE
:106A6000014BA4F14107192F01D8FCB218E0A4F1A1
:106A70006107192F01D8473C04E0A4F13007092F22
:106A800002D8241DE4B20BE02B2C06D02D2C04D010
:106A90002F2C04D05F2C0DD101E03E2400E03F24D8
:106AA00065B1012D11D0022D1CD017780025274388
:106AB00002F8017B491E89B2D1D2F0BD012598426E
:106AC000FBD2401C80B2A4000AE01778022547EAF6
:106AD000141702F8017B9842EFD2401C80B22401C7
:106AE0001470E7E71778032547EA940702F8017B5B
:106AF0009842E2D2401C80B2A401F1E7F8B500262A
:106B000055E0FF248DF800408DF801408DF80240DB
:106B10008DF8034091B310F8014B491E4FEA9405DC
:106B20008DF800504FEA847409044FEA9465090C0B
:106B30008DF801501BD010F8014B491E45EA141581
:106B40008DF801504FEA047409044FEA9465090C6A
:106B50008DF802500BD010F8014B491E45EA9415F0
:106B60008DF8025004F03F0489B28DF803400025EF
:106B70006F467C5D192C02D8413407E019E0332CB4
:106B800001D8473402E03D2C02D8241FE4B204E0CF
:106B90003E2C10D03F2C10D03D246D1CEDB202F8DD
:106BA000014B042DE5D31B1F361D9BB2B6B2042B3F
:106BB000A7D23046F8BD2B24EFE72F24EDE70000E5
:106BC0002DE9FC5F5D495B4D5D4ED1F800E0297811
:106BD000019121F00801009196F84211594AC1EB48
:106BE0000111554F4FEA810B96F8E2C296F84537EE
:106BF00011684FF4804407F104094EF4802A0728F5
:106C00006FD2DFE800F0041038954C5C6F004B4801
:106C10002EF48026066021F4006053E03C6059E0C9
:106C2000C9F8004056E06BF30A01116048057FD0B7
:106C3000424B0805C3F800A004D421F4F03000F55D
:106C40000050106006F01CFF38B9FFF7A1FB0128C7
:106C500003D101213C481DF04BFA96F8E2020128CD
:106C600004D196F84507AA2802D03C60287812E0A3
:106C7000C9F80040FAE76BF30A011160480557D0E4
:106C80002E48C0F800A021F4F03040F4006000F578
:106C9000A0301060019840F00800287041E041F4F5
:106CA00060201060BCF1010F03D1AA2B05D0C9F8F8
:106CB0000040BDE8FC5F1FF015BF3C60F9E70846E7
:106CC00061F31E506FF30A00106000982870BCF149
:106CD000010F03D0BDE8FC5F1FF0E4BEAA2B9FD1DB
:106CE0009CE725E01948014222D0080D60F30A0113
:106CF000116006F0C5FE38B9FFF74AFB012803D141
:106D0000012111481DF0F4F9287840F0080028709E
:106D100096F8E202012804D196F84507AA2804D083
:106D20003C60BDE8FC5F1FF0CDBEC9F80040F8E74D
:106D3000BDE8FC9F48000020100C0140482F0020B7
:106D4000A027002080000020054F03080000F07FEE
:106D500010B50020064B0246FF2400EB400103EB78
:106D6000C101401C0A714C750828F6D310BD000003
:106D7000686A0020102302228021014827F078BF92
:106D80000018014070B51BF09DFF394C6168401A36
:106D900032284BD91BF096FF364A6060364C50784B
:106DA000364D01074FF0800304D0411E61F303000C
:106DB00050702CE011784E090AD0072606EB5116C8
:106DC00066F347111170010961F3030050700BE085
:106DD000CE060ED520F00F000A3020F0F000A030D3
:106DE000507021F0E0001070206880F0800020607A
:106DF0000DE008070AD51E4808300088C0F30A00D5
:106E0000012803D91C48001D036000E02B601078A6
:106E1000C1070CD020F001001070507820F00F0056
:106E2000401C5070206880F08000206070BD810799
:106E30000CD520F00201507820F00F00001D20F04A
:106E4000F0001030507041F0E0000EE04107EDD549
:106E500020F00401507820F00F00001D20F0F00019
:106E60001030507021F0E000603010702B6070BD69
:106E700078000020480000200C1801401418014040
:106E8000F0B5344D0021344E2A780B46521C02F0E6
:106E90001F040A46F7185B1C97F8EF708754521CC2
:106EA000DBB2D2B2042BF5D301268654521CD2B2E7
:106EB00008238354521C294FD2B2002305EB44040B
:106EC000E57807EB8505ED5C8554521C5B1CDBB255
:106ED000D2B2042BF4D300258554521CD2B26423C1
:106EE0008654A678521CB6FBF3F6D2B28654A67826
:106EF000521CB6FBF3F703FB17660A23B6FBF3F647
:106F0000D2B28654A478521CB4FBF3F6D2B203FB7F
:106F100016438354521CD3B2002205E0845C84B132
:106F20002144521CC9B2D2B29A42F7D30F22B1FB0C
:106F3000F2F402FB1411C1F10F01C1540A2902D06D
:106F400002E00A31EDE7C55412215B1CDAB281542C
:106F5000F0BD0000A82F0020A02700202032030849
:106F60002DE9F04FDFF8ECB20925BB4F9BF87E000E
:106F700093B0022800D17D71B84800240078012820
:106F800021D1B748B74E8178B3480129007813D092
:106F9000DFF8D4827B794FF0010A98F8012098F845
:106FA00000104FF004090A2B7DD2DFE803F00D1228
:106FB00045608DABB9C1F6F5FF2801D013F0D0F9CB
:106FC000FF203870B47043E187F805A013B0BDE826
:106FD000F08F9BF8C9005D46012817D09D4903A892
:106FE0008331FDF7B1F9A1494FF43470CDE90001C7
:106FF0000290A1F53473B5F8B42003A9002013F072
:10700000D5F93870FF2810D00220FFE095F88210E3
:1070100095F88100CDE9000195F8803095F87F2042
:1070200093A103A826F0A2FEDDE71BF04BFEB8609B
:1070300008207871B470C9E713F004FA012801D070
:1070400090BBC3E73878C0EBC00101EB0011834867
:1070500000EB8100007E000607D51BF033FEB86010
:107060000220B870387813F04FFA0320CEE013F006
:10707000E9F90028AAD03878C0EBC00101EB001173
:10708000764800EB8100007E000619D51BF01AFE41
:10709000B968411A41F28830814297D9B87818B15D
:1070A000401EB87001E0B9E008E01BF00BFEB860CC
:1070B000387813B0BDE8F04F13F026BA7D7185E73C
:1070C000484687F80290A1E091420FD0491C01F098
:1070D0001F00787008EB400087F804A0C37881781F
:1070E0000122664815F0D8FFF88004E0634816F0E6
:1070F0006BF8F8803C711BF0E5FDB86087F803A0E1
:10710000052083E0FA885D4913F028FB002801D0B0
:1071100070DB0BE0FC801BF0D5FDB860062075E04D
:1071200013F090F9012801D0A8BB4FE707206DE0CC
:1071300013F09CF9002804DA1BF0C4FDB860B470A9
:1071400063E045DDDFF834B1F98882B2594438781C
:1071500013F0D6FAF988084480B2F8800828AED334
:10716000DBF8050000908DF80440102200216846ED
:10717000FDF7F3F880B2F9880A3081429FD3584670
:1071800016F086F8022809D0B878F0B1401EB87021
:1071900087F805901BE02DE02EE039E0FC703848C0
:1071A00086F802A07D71A0F85A40387910B179783C
:1071B00088F8001087F8029098F8002098F80100ED
:1071C00049468242B1D0797100E7B4707D71FC808C
:1071D000F8780028A9D01BF075FDB968401A42F272
:1071E00010718842A1D9B87820B1401EB87087F8D4
:1071F0000590EBE6B47061E7FF2801D013F0B0F81A
:10720000FF2038701BF05EFDB86008207871DDE665
:10721000FF2803D01BF056FDB8604FE7B07878B177
:10722000914215D11BF04EFDB968411A9BF8C80078
:1072300000EB4002C2EBC010B1EBC00F08D8C5E6AE
:107240001BF040FDB968411A41F288308142BBD938
:107250007C71BBE6A027002050030020B81A022052
:107260005400002059000020A82F002004250220EF
:1072700025642E25642E25642E256400B421022069
:10728000482F00202DE9F047814618F0F5F8154EFB
:10729000022030601027351D2F60DFF84C8020243D
:1072A000C8F800402C600020401C1428FCD30020AB
:1072B000401C1428FCD349F0800018F043FC18F05F
:1072C000D3F818F01BFC2F600021491C1429FCD3B3
:1072D0000021491C1429FCD33460C8F80040BDE8E3
:1072E000F087000010140140101801402DE9F0470C
:1072F0008946804618F0C0F8134D10262E60134FB3
:1073000020243C602C600020401C1428FCD300206A
:10731000401C1428FCD308F07F0018F013FC4846EA
:1073200018F010FC2E600020401C1428FCD3002014
:10733000401C1428FCD30448001F046018F094F883
:107340003C60BDE8F08700001414014010180140B3
:1073500070B5124D102302228021284627F088FCA8
:10736000102302220821284627F082FC0B4C8020A3
:10737000103420600820206010230222202128469B
:1073800027F076FC102302222021054827F070FC0C
:107390002020206002491031086070BD00140140B7
:1073A0000018014010B500284FF0600003D0FFF72F
:1073B0009DFF012010BD00F0AFF9FAE72DE9F0477D
:1073C0004FF000075FEA00093D463C464FF066007B
:1073D0005ED0FFF757FFC0F340186D20FFF752FF54
:1073E00006466A20FFF74EFFB8F1000F03D0F143C5
:1073F000C043CEB2C0B2310600D52025710601D5FA
:1074000045F00105B10601D545F00105F10602D5AB
:1074100045F010051024310703D545F0080544F068
:107420000804710703D545F0040544F00404B107CE
:1074300003D545F0020544F00204F10703D045F0FE
:10744000010544F00104810602D5022744F08004BE
:10745000C10603D547F0010744F04004000703D5F7
:1074600047F0040744F02004B9F1000F39464FF00B
:107470006A0019D0FFF73AFF29466B20FFF736FF65
:10748000B8F1000F01D0E043C4B22046BDE8F08758
:1074900000F0F6F8C0F340186D2000F0F1F8064651
:1074A0006A2000F0EDF89FE700F036F929466B20DE
:1074B00000F032F9E4E700284FF0650001D0FFF753
:1074C00015BF00F029B92DE9F0411D4616460F46BB
:1074D0004FF0000438B110E0E019315DC0B200F0A7
:1074E0001BF9641CE4B2AC42F6D308E0E019315D4C
:1074F000C0B2FFF7FBFE641CE4B2AC42F6D301203D
:10750000BDE8F08110B500280C464FF0690009D0A5
:10751000FFF7B8FE20F060012143BDE8104069206C
:10752000FFF7E4BE00F0ACF820F060012143BDE8B5
:107530001040692000F0F0B800284FF0680001D03A
:10754000FFF7D4BE00F0E8B870B504000D464FF068
:107550000D0005D0FFF796FE2DB140F0E00104E0EC
:1075600000F08EF8F8E720F0E0014FF00D001CB1BC
:10757000BDE87040FFF7BABEBDE8704000F0CCB87F
:1075800010B500280C464FF0690005D0FFF77AFED1
:107590007CB140F080010EE000F072F814B140F0D0
:1075A000800101E020F08001BDE81040692000F07A
:1075B000B3B820F08001BDE810406920FFF796BE07
:1075C0000821FFF7EFBE0221FFF7ECBE4021FFF7D5
:1075D000E9BE70B5054618F073FA284600F092F837
:1075E0001BF070FB04461BF06DFB001B1428FAD344
:1075F0002846FFF7E8FF4FF061006DB1FFF742FE4C
:1076000020F0200040F010016120FFF76FFE2846B7
:10761000BDE87040FFF7D2BE00F032F820F0200045
:1076200040F01001612000F077F8F0E770B5002815
:107630004FF0480012D0FFF725FE0546AA2148204A
:10764000FFF754FE4820FFF71DFE04462946482058
:10765000FFF74CFEAA2C11D0002070BD00F010F8EE
:107660000546AA21482000F057F8482000F008F805
:1076700004462946482000F04FF8EBE7012070BD92
:107680002DE9F0470746002017F004FEDFF86CA054
:107690004FF02009CAF800900AF10406082434606B
:1076A000174D2C60291D4FF08008C1F80080002084
:1076B000401C1428FCD30020401C1428FCD347F0A5
:1076C000800018F081FA012017F0E4FD18F058FA54
:1076D000074634600020401C1428FCD30020401CC6
:1076E0001428FCD3C5F80080CAF80090022017F0D7
:1076F000D1FD2C603846BDE8F0870000100C014039
:107700001014014000284FF0FF014FF07F0001D01E
:10771000FFF7ECBDAFF300802DE9F04780468946C6
:10772000002017F0B7FD134E08243460124D2C6072
:107730008027281D07600020401C1428FCD300204F
:10774000401C1428FCD308F07F0018F03DFA48468E
:1077500018F03AFA34600020401C1428FCD30020B2
:10776000401C1428FCD32F60022017F093FD2C60DE
:10777000BDE8F087140C01401014014030B5FF2320
:107780000022064D04E0845C5C40521C2B5D92B2EA
:107790008A42F8D3C3F1FF0030BD000074530308E0
:1077A00070B505460C460846FCF7ACFD82B2214692
:1077B0002846BDE87040EF232BF08CBB70B5044623
:1077C00000200246064D07E0A65CC3B27340521C7F
:1077D00035F8133083EA10208A42F5DB70BD0000D3
:1077E0009846030810B50022044B03E050F82240ED
:1077F0001C60521C8A42F9D3186810BD0030024048
:1078000001490120886070470030024010B54B08E4
:10781000002202E030F8024B22445B1E9BB2F9D2F8
:10782000C90701D00078024490B200EB124000EB8F
:107830001040C04380B210BD70B51BF043FA204D1C
:107840004FF47A742968401AA04238D91BF03AFAEA
:107850001C498969401AB0FBF4F084B21BF032FA7B
:107860002860287E4110491C61F34100287611F000
:10787000C7F96425B4FBF5F0C1B24C2001F0D0FB90
:10788000B4FBF5F005FB10400A25B0FBF5F15420E0
:1078900001F0C6FBB4FBF5F005FB10415C2001F0E4
:1078A000BFFB1021402020F00BF801220C210648DC
:1078B0001AF0DEFF5A2011F03BFA0448857170BDC2
:1078C000603E0020D030002000080040482F0020FB
:1078D00070B4184C237F0D2B04D00B2B02D070BC3E
:1078E0000FF0E0BF144D0020E87008E0EB78265C54
:1078F00003EB830306EB4303401CEB70C0B29042E2
:10790000F4D3E878884208D8A8780C4A00EB8000C5
:1079100002EB8000C088288009E00948008810F444
:10792000C04F04D10748027842F002020270297168
:1079300070BC7047D03000206A000020C4320308B9
:10794000482F00204800002010B518F02DFC184CDE
:1079500004F16800618AA0F827100168C160016124
:1079600042684261826190F82520130701D5042303
:1079700000E00D2300F8243F22F0F70242708278E5
:1079800022F00F0242F01002827094F8260020F0DC
:107990001B0084F82600E16011F0D8F9A08011F0F6
:1079A000D5F9E0804FF0FF30A0840120A08210BD07
:1079B000D4B60020144A10B511684B0708D521F041
:1079C000040141F0080111600F2111F091FF17E04F
:1079D000080715D500201118401C0B7EC0B223F0FB
:1079E00003030B762928F6D3106820F018001060E6
:1079F000D07820F08000D070107920F0070010714E
:107A000002484178017010BD482F0020EA2F002065
:107A10002DE9F041144E154F00243519287E010739
:107A200015D520F008002876601CC0B2192111F08D
:107A30005FFF287EC10603D4810601D4400606D527
:107A40007878401C7870306840F480703060641C36
:107A5000E4B2292CE1D3306820F4007030600020BB
:107A60003870BDE8F0810000482F0020730000202E
:107A7000094B00201918401C0A7EC0B222F0700287
:107A80000A762928F6D31868044920F48070186013
:107A90000020487070470000482F0020730000202D
:107AA000144B10B51844144A017E0C0706D521F07A
:107AB00008010176117809B1491E1170017E4C064A
:107AC00003D4CC0601D48C0606D521F070010176D2
:107AD000507818B1401E5070507818B9186820F4CA
:107AE000807018601078002803D1186820F40070A6
:107AF000186010BD482F002073000020FEB5454DD2
:107B0000454E421C6B783418072974D2DFE801F027
:107B100073041B3F4D586F00207E01076BD520F08A
:107B200008002076297809B1491E2970C10603D4BE
:107B3000810601D440065ED55B1C6B70306840F452
:107B40008070306057E0217ECB0654D521F01001C3
:107B5000217689070DD031A18AC98DE88A00324982
:107B6000084490F8480200F01F001DF80010D0B241
:107B700001E0D0B21C2111F0BBFE207E81063AD478
:107B800040062DE0687870B3401E687033E0207EB8
:107B9000810630D520F020002076C1062BD4400687
:107BA00029D403B35B1E6B7025E0207E410722D5EC
:107BB00020F004002076D0B2272111F099FE1AE0BF
:107BC000217E4B0617D521F04001217628280BD0C5
:107BD000D0B2282111F08CFE207EC1060BD4800685
:107BE0000028CFDA07E008E01E212920F2E7207EF6
:107BF00020F080002076687818B9306820F4807012
:107C000030602878002803D1306820F4007030609C
:107C1000FEBD000073000020482F0020002021221C
:107C20002324252608000000A02700200D49B1F8D4
:107C30004C00002815D0401E0004000CA1F84C0098
:107C40000FD1A1F5F5604FF6FF72B0F8F400C0EB6C
:107C5000001002EA8000A1F84C001521002011F06C
:107C600047BE7047482F00202DE9F84311F090FDE2
:107C7000FD4DFEA0FF22016869608088288105F122
:107C80000A004021AD1DFCF7F7FAFAA0FB4C006892
:107C900068606C646FF07F46AE64F94FEF64DFF8A4
:107CA000E483C5F850804FF00839C5F85490F6A128
:107CB00005F16000FCF748FB15F8700FF2A120F009
:107CC000800040F0400005F8480BF248C5F83946FE
:107CD000C5F83D66C5F84176C5F84586C5F84996AC
:107CE000FCF732FB95F86506EBA120F0800040F030
:107CF000400085F86506EA48FCF726FBE848E9A15C
:107D00001030FCF721FBE648E8A12038FCF71CFB0B
:107D1000E348E8A11038FCF717FB022605F8406C91
:107D2000E64845F83F0C41F68160CF4925F80A0C3A
:107D3000002481F8B64001F1800081F8BF40C47092
:107D40000127EF72B421A9722E7312216973E977AA
:107D5000C0F86F404FF0050885F83580EC8685F84F
:107D6000381085F84A1085F85C1085F86E1005F813
:107D7000808F022169706973E971A9710A21A97361
:107D80001E22AA720222EA722A7303222A726F72D8
:107D9000A9704046E9702871B3486C71A5F59F75CC
:107DA000C0F85041C0F85441A0F8064200202918FC
:107DB000401C91F84822C0B222F06002203222F02A
:107DC000800281F848222828F1D395F8480220F053
:107DD0001F00401C85F8480295F8490220F01F005A
:107DE000801C85F8490295F84A0220F01F00801C8B
:107DF00085F84A0295F84B0220F01F00C01C85F858
:107E00004B0204202918401C91F84822C0B222F0ED
:107E10001F02921C81F848222028F3D32020291821
:107E2000401C91F84822C0B222F01F0281F848227B
:107E30002828F4D3002005EB8001401C81F8704213
:107E400081F8714281F87242C0B281F873620828E9
:107E5000F1D385489AA1C0F89042C0F89442C0F886
:107E60009842C0F89C4200F2A120FCF76DFA0E2067
:107E700085F8E1028A4885F8A07285F8E27210213F
:107E80006838FCF700FA86484FF4A0712030FCF700
:107E9000FAF98FA19248FCF757FA1920A5F8DC04EB
:107EA0008F4890A13230FCF74FFA8D4892A1623092
:107EB000FCF74AFA8A488BA17A30FCF745FA6A48FF
:107EC00092A180F8564580F8D64580F8064680F89D
:107ED000364685F8966600F26660FCF735FA70481B
:107EE00032215838FCF7CFF900200F212A18401C06
:107EF000C0B282F8F3120628F8D385F8FA1285F892
:107F0000FB7285F8FC7285F8FD720D2085F8FE0283
:107F1000042185F8FF1285F8001385F8017385F8B0
:107F2000020385F8030385F8048385F8067385F852
:107F3000078385F8088385F8091385F80A8385F88F
:107F40000B73082285F80C2385F80D7385F80E73E2
:107F500085F8118385F8257385F82A4385F827630A
:107F600085F8268385F829133C264A4885F8286336
:107F700068A17C3805F2FA25FCF7E6F9454867A1C7
:107F80004C38FCF7E1F96720A5F830045020A5F83B
:107F900032046748C5F8340444F27260A5F8380426
:107FA0003C4864A12130FCF7CFF985F8A76455213E
:107FB00085F8A87485F84B140020A5F2FA252A1834
:107FC000401CC0B282F846472828F8D385F86E17BF
:107FD00085F8704785F8714785F88147632085F8F3
:107FE000A30795F8A40740F0010085F8A40716F050
:107FF0000DFF002016F0C2FE4FF4F5611A4817F08D
:1080000021F80FF065F94FF4A04016F0BDFE4C4882
:10801000016821F00301016018F03CF9494804802F
:1080200044804FF4005016F0AFFE04224549022070
:1080300002F099FF44490122087820F0020040F044
:1080400001000870002002F08EFF0FF041F914F0DB
:10805000EDF925F0A3FB0FF03BF94FF4004016F0CB
:1080600093FE0222694671E0A0270020000102036E
:10807000040500000102030400000000C0A8015133
:10808000C0A80101CA60805654435049505F504116
:108090004E454C00B32E002061646D696E000000F7
:1080A000EB2A0020303132333435000075736572AD
:1080B0000000000031323334000000007BBF0100BB
:1080C00074696D652E6E6973742E676F760000009B
:1080D000736D74702E3136332E636F6D00000000A7
:1080E0004C2C002063617361736963757261403168
:1080F00036332E636F6D00004E504C4E5258514730
:108100004456414144544A42000000002A39392370
:108110000000000073697175726100005369717528
:10812000726132303233414E5449465552544F00F9
:108130002F5B4F933132333435363738000000002F
:10814000482F0020A6000020720000200620009486
:1081500002F009FFBDE8F88330B51C4890F87007BD
:10816000012831D11A484078011F06292AD3184D19
:10817000072403282978EA7801EB8103A97801F024
:108180001F0102D00A280FD01EE0042000EB93004C
:10819000B0FBF4F304FB1300C0F11F00814211D8BF
:1081A00012D1022A0ED20FE0012000EB9300B0FBA7
:1081B000F4F304FB1300C0F11F00814202D303D18A
:1081C000022A01D2012030BD002030BDA0270020AE
:1081D0005E0000202DE9F0410122284E05460024D2
:1081E00006EB840090F8731201293FD190F87012C9
:1081F000A94203D090F87112A94237D1204F002232
:1082000007EB84018B78D3B14878A8422BD117F8BB
:1082100024000021401EC0B217F064FB354495F8DD
:10822000470200F01F0117F8240011F061FB95F8D8
:108230004702C0F34110FEF7C3FC01221AE006EB2F
:10824000840393F87132AB4204D107F8243090F8DC
:10825000703203E090F8705207F824504B7090F899
:108260007202887006E006EB8400F8E7641CE4B252
:10827000082CB5D31046BDE8F0810000A0270020EF
:10828000B030002010B5054C2078FF2803D01AF03C
:1082900045FFFF2020700020607010BD286B00207B
:1082A00070B50D4801260D4D0178FF2459B128788D
:1082B000FF2802D01AF032FF2C700420A8606E70E4
:1082C0001220A87070BD06700020401C2C7010F0A9
:1082D000FF00FAD0F1E700004C010020286B0020DD
:1082E00002488078C0F3000070470000286B00202F
:1082F0002DE9F05F0025DFF884A2DFF88482A14C2D
:10830000AB464FF47A79022660780D287ED2DFE8FA
:1083100000F07D0711485D88C4E1FCE1FCE1FC0050
:1083200000214323442208461AF0D6FF2070FF287C
:108330006CD066703C20E06084F828B0A07820F013
:108340000500A07010F0E4FF0028F1D020781AF0AA
:10835000ABFFB0F5967F59D3A078FF2280F01000D4
:10836000A0702078C0EBC0010AEB81000A21FBF766
:1083700083FF0021012025F0B1FB1AF0A3FC074682
:1083800010F0E4FCB0FBF9F209FB1201A06800EB6D
:108390004002C2EBC01001EBC00038446060032013
:1083A0003DE020781AF058FF88B3A07840F008002C
:1083B000A07025F03DFA022828D105E0A0684028E9
:1083C00001D24000A060C2E00420607020781AF062
:1083D0006BFFB0F5817FBED32078FF22C0EBC001D8
:1083E0000AEB81000A21FBF747FF0021032025F05B
:1083F00075FB1AF067FC074610F0A8FCB0FBF9F219
:1084000009FB1201A06800EB400201E044E011E02A
:10841000C2EBC01001EBC000384460600520607002
:1084200096E020781AF018FF20B125F001FA05280F
:108430007ED106E01AF046FC6168401A0028BDDCD7
:1084400086E020781AF06AFEFF2020701AF03AFCCD
:10845000606006206070A07840F00300A07094F87F
:108460002800C10702D06269C8F80020410702D580
:10847000E269C8F80420810702D5A269C8F808207B
:10848000010702D5226AC8F80C204146C8F810B08E
:10849000C0065DD5606A08615AE01AF013FC616895
:1084A000401A484554D3D4E9022002EB42029042DC
:1084B00005D901F57A71401E6160E06048E0002155
:1084C0004323442208461AF007FF2070FF283FD0BC
:1084D0000720607020781AF0E7FEB0F5817F37D36F
:1084E0000121032025F0FAFAA07820F00400A07002
:1084F0001AF0E8FB074610F029FCB0FBF9F209FB83
:108500001201A06800EB400201E009E010E0C2EBBC
:10851000C01001EBC000384460606078401C7EE70A
:1085200020781AF099FE30B125F082F9052816D08E
:1085300006280DD10BE01AF0C5FB6168401A00282F
:1085400006DD6078401CC0B260700C2800D96670EF
:108550006D1C15F0FF053FF4D7AEBDE8F09F207805
:108560001AF0DCFDFF2020701AF0ACFB60600620E2
:108570006070A07840F00200A070E9E768B70020C2
:108580009ABF0020286B002007480649026841F87E
:108590004A2F42684A6082688A60C268CA6000697D
:1085A00008617047A02700209ABF002010B5042062
:1085B00000F08AF80A4C30B1042000F031F820793C
:1085C00040F002002071022000F07EF8002806D062
:1085D000022000F025F8207940F00100207110BD44
:1085E00080FE012010B5202000F06EF8002807D092
:1085F000202000F015F80348017941F004010171D1
:1086000010BD000080FE01200029016802D041F069
:10861000010102E04FF6FE72114001607047000058
:10862000C10002D50249086070470249486070479E
:108630000404024000000240D0F8A43023F080730C
:10864000C0F8A430D0F8A43043F08073C0F8A43050
:10865000012914D0022915D0032918D0042919D0D2
:10866000052920D0062926D007290FD150F8A41FAC
:1086700021F47F010160016841EA024105E050F800
:10868000A01F12E050F8A01F17E00160704750F8DB
:10869000A01FEDE750F8A01F21F07F4101600168A5
:1086A00041EA0261F1E750F8A41F21F0FF010160E7
:1086B00001681143E9E750F8A41F21F47F410160EC
:1086C000016841EA0221E0E702460020D10001D51D
:1086D000034900E003490968114200D001207047B6
:1086E0000004024000000240002A026801D00A4350
:1086F00000E08A430260704730B5026847F6F073C5
:108700009A430C6A8B682343D1E904452C432343E5
:108710008C692343CC6923434C6A23438C6A2343EB
:1087200013430360CA6842600A6882604968C16096
:1087300030BD000001684FF6FE721140016000215B
:10874000016041608160C1603149314A083990421D
:1087500003D1486840F00F0006E02D4A14329042E1
:1087600004D1486840F0F00048607047284A283239
:10877000904203D1486840F47060F5E7244A3C32E7
:10878000904203D1486840F47040EDE7204A5032EF
:10879000904203D1486840F47020E5E71C4A6432F7
:1087A000904203D1486840F47000DDE7184A7832FF
:1087B000904203D1486840F07060D5E7154A111F18
:1087C000904203D1086840F00F0006E0114A1432CD
:1087D000904204D1086840F0F000086070470D4AEC
:1087E0002832904203D1086840F47060F5E7094AE6
:1087F0003C32904203D1086840F47040EDE7054AEE
:1088000050329042EAD1086840F47020E5E7000059
:10881000080002400804024005490878C20701D058
:108820000020704740F001000870012070470000F0
:108830005101002038B5032468461AF0C9FC00280D
:1088400007D09DF80010B4EB911F03D168461AF0D1
:10885000BFFC38BD0029FCD000201AF0D1FCEBE7AA
:1088600010B5094C2078FF2803D01AF057FCFF20E0
:10887000207005490720491CA070087820F00100ED
:108880000870C0F3400010BD5001002010B5FFF784
:10889000C3FFFFF7CFFFBDE81040FFF7E1BF0000C7
:1088A0002DE9F04FF64C81462046A178F54F661C25
:1088B000F54D007889B04FF0000807F10C0204F183
:1088C000060A082970D2DFE801F00408131D287F8A
:1088D000FBFA84F8038084F804801046FCF7BAF8A9
:1088E000E078401CE0701AF0EDF9A060022067E02B
:1088F000291D1046FCF708F8002856D0F8682860B3
:108900000320A070352300220421DF481AF0E4FC84
:108910002070FF2848D00420A07020781AF0C4FCF2
:108920000028F7D0BAF800005546401CAAF800000D
:108930009AF801001AF086FD28781AF083FD0120CC
:108940001AF080FD00201AF07DFD00201AF07AFD5B
:1089500001201AF077FD00201AF074FD00201AF0B3
:1089600071FD00201AF06EFD00201AF06BFD002052
:108970001AF068FD00201AF065FDE06810B300F001
:1089800085F900201AF05EFD60791AF05BFD002089
:108990001AF058FD01201AF055FD1AF0E3FB1AF009
:1089A00091F9A06005200BE00BE01AF08BF9A168AB
:1089B000401AB0F57A7F04D9E07803287ED30620E8
:1089C000A0705AE12069DAE7A3461AF045FC78B1B5
:1089D00003AC601C1AF0FCFB03A81AF0F9FBBDF80D
:1089E0000C10BAF8000081420ED01AF0A7FB44E147
:1089F0001AF068F9DBF80820801AB0F57A7FE0D920
:108A000006208BF8020038E1E01C1AF0E1FBA01C04
:108A10001AF0DEFB601D1AF0DBFB201D1AF0D8FBFC
:108A2000E01D1AF0D5FBA01D1AF0D2FB0DF11500C8
:108A30001AF0CEFB05A81AF0CBFB0DF117001AF0C7
:108A4000C7FB0DF116001AF0C3FB0DF109006C46CF
:108A50000DF1080A08AF06900DE0FFF7EBFE781C59
:108A60001AF0B6FB08A81AF0B3FB781C1AF0B0FB9A
:108A700008A81AF0ADFBBDF81000411EADF81010AB
:108A8000EBD239E0FFF7D6FE601C1AF0A1FB684676
:108A90001AF09EFBE01C1AF09BFBA01C1AF098FB3E
:108AA000E01D1AF095FBA01D1AF092FB601D1AF054
:108AB0008FFB201D1AF08CFB069802E0DBE0B6E08D
:108AC000BEE01AF085FB50461AF082FBBDF80000AC
:108AD00001280BD1BDF80200012807D1BDF808001C
:108AE000042879D002E007A81AF072FBBDF808004C
:108AF000411EADF80810F6D2BDF81200411EADF8C7
:108B00001210BFD235E0FFF795FE601C1AF060FB33
:108B100068461AF05DFBE01C1AF05AFBA01C1AF024
:108B200057FBE01D1AF054FBA01D1AF051FB601D0D
:108B30001AF04EFB201D1AF04BFB06981AF048FB6A
:108B400050461AF045FBBDF8000001280BD1BDF8D6
:108B50000200012807D1BDF8080004283CD002E03B
:108B600007A81AF035FBBDF80800411EADF8081043
:108B7000F6D2BDF81400411EADF81410C3D245E082
:108B8000FFF758FE601C1AF023FB68461AF020FB22
:108B9000E01C1AF01DFBA01C1AF01AFBE01D1AF0D5
:108BA00017FBA01D1AF014FB601D1AF011FB201D0D
:108BB0001AF00EFB06981AF00BFB50461AF008FB51
:108BC000BDF8000001281BD1BDF80200012817D113
:108BD000BDF80800042813D1307840F0020030704E
:108BE00029481AF0F5FA681C1AF0F2FAA81C1AF0D3
:108BF000EFFAE81C1AF0ECFA0EE007A81AF0E8FA0F
:108C0000BDF80800411EADF80810F6D2BDF81600F8
:108C1000411EADF81610B3D21AF090FA5C469BF8DC
:108C200000001AF07BFAFF2020700720A070307837
:108C3000800701D4C5F800802968C9F8001004E055
:108C40002179022905D3C9F80080012009B0BDE8C7
:108C5000F08F491C21713A697AB1F96851404A4054
:108C600051403A61F96084F80380FF2803D01AF07C
:108C700055FAFF2020700120A2E60020E6E7000060
:108C8000500100209ABF0020546B00202DE9F041D4
:108C90000646054615F8014B3CB12E2C05D02F2C6D
:108CA00003D02C2C01D03E2CF4D1A81B401EC7B2FF
:108CB00038461AF0C7FB394630461AF0D9FB06444D
:108CC000761C2CB12F2C03D02C2C01D03E2CE1D1C2
:108CD000BDE8F04100201AF0B5BB000070B50C46AD
:108CE00005460B4917F0A4F80A4B5A1E30B1187804
:108CF00040F0020018700720907070BD0020C2E99B
:108D0000035090705471187820F00200187070BDF4
:108D1000546B00205101002007494FF48040086047
:108D20008010091F08600548002141703221017040
:108D30000349C16170470000141401409CC5002024
:108D4000558D00080248C069002800D000477047D0
:108D50009CC500202DE9F041154A107840B1401E15
:108D6000C0B21070502801D010B118E0122014E0E9
:108D7000104B51789C140026A5004FF4006717296A
:108D800010D20B48801C11F800C0BCF1100F09D2A2
:108D9000A0231370085C491C517006F001F80020F4
:108DA000BDE8F081D6611F601C601D600120F7E7FF
:108DB0009CC500201014014070B50B46044621E00C
:108DC0006178207810F046F9A57805F01F02D118D7
:108DD000814205D8E8B2184460F30405A57013E099
:108DE00061780C2901D2491C03E02178491C2170CB
:108DF0000121801A181A401E83B225F01F006170ED
:108E0000401CA070002BDBD1208841BA0820FDF760
:108E100019FEA078BDE87040C006C10C0C20FDF71B
:108E200011BE08B5642309E0ADF80030BDF80010AC
:108E30004A1EADF80020F9D2401EC0B20028F3D17E
:108E400008BD01B5009801E0401E00900028FBD14C
:108E500008BD00002DE9F041DFF8C880074608EBA7
:108E600007000C4690F84802C00659D00521384644
:108E7000FEF744FE2C480721C619B1EB141F0AD196
:108E800098F84901012810D0307EC00603D5022190
:108E90003846FEF733FE7D1C482C0DD020073DD40C
:108EA00098F84A0101280DD017E0A007EFD502215C
:108EB000384616F017FDEEE7E8B2BDE8F0410721AD
:108EC00001F03AB8E00704D0E8B2082101F034F824
:108ED00003E004213846FEF711FEA00702D5E8B2F0
:108EE00024F068FA60070CD5307E800618D4E8B20A
:108EF000102110F0FDFC3846BDE8F041032116F0CA
:108F0000F1BC307E80060BD5E8B2112110F0F0FCE8
:108F10003846BDE8F0410321FEF7F0BD6007E3D419
:108F2000BDE8F081A0270020482F002038B5384C3C
:108F3000607820B101280FD0022867D12AE047F2DB
:108F40005F620021134608461AF0C6F92070FF2818
:108F50005CD06078401C58E020781AF07DF9002839
:108F600054D068461AF034F91AF0E8F89DF8000079
:108F700044284BD160782749401C60702078C0EBB2
:108F8000C00001EB800024490A6802604A68426020
:108F90000989018120781AF087F9002836D00F213D
:108FA0001E481AF065FA0D201AF04CFA0A201AF041
:108FB00049FA0020194D8DF800001C3D9DF8000075
:108FC000284490F82D0025F082FB1AF03BFA9DF81A
:108FD0000000284490F82D0025F080FB1AF032FAAA
:108FE0009DF80000401CC0B28DF80000062803D098
:108FF0002D201AF027FAE1E70D201AF023FA0A20B3
:109000001AF020FA1AF0AEF80120607038BD0000A6
:109010004001002068B7002090BF0020B6BF0020AC
:10902000014A515C1EF04CBC8851030870B51F4CBE
:109030001F4D207820B101282DD01E48E86170BD59
:1090400019F040FE286001202070DB2118201EF05E
:1090500037FC762120201EF033FC6D2100201EF00D
:109060002FFC162108201EF02BFC162110201EF0CC
:1090700027FCAF214C201EF023FC062154201EF0BB
:109080001FFCAF215C201EF01BFCBDE870404F218F
:1090900064201EF015BC19F015FE2968401AB0F5C1
:1090A000FA6FCCD90220207070BD0000240100208E
:1090B000603E002015A90108704770B5044619F0FC
:1090C00001FE054619F0FEFD401BA042FAD370BD1B
:1090D000002307221E2120200DF0FEBC01230722C1
:1090E0001E2120200DF0F8BC10B520200DF021FC31
:1090F00002490870BDE8104000F02CBA300300208F
:1091000010B53F22002120200DF0FBFC032200219E
:1091100020200DF0F6FC7F22012120200DF0F1FC33
:109120001122052120200DF0ECFC302212212020FC
:109130000DF0E7FC2022132110460DF0E2FC502236
:10914000212120200DF0DDFC5522222120200DF0D0
:10915000D8FCA022212120200DF0D3FC8022002168
:1091600020200DF0CEFC3220FFF7A7FF4022152172
:1091700020200DF0C6FC8A22142120200DF0C1FC15
:10918000C4221A2120200DF0BCFCA8221721202087
:109190000DF0B7FC19221B2120200DF0B2FC50224B
:1091A0001C2120200DF0ADFC062000F083FA802267
:1091B000282120200DF0A5FC2C22262120200DF0B6
:1091C000A0FC0022382120200DF09BFC002237213A
:1091D00020200DF096FC04494FF4804008600349BC
:1091E0008011086010BD00001014014010180140EB
:1091F00010B53F22002120200DF083FC0322002126
:1092000020200DF07EFC7F22012120200DF079FC32
:109210001122052120200DF074FC0022362120208F
:109220000DF06FFC0C22112120200DF06AFC402271
:10923000212120200DF065FC8022002120200DF04E
:1092400060FC3220FFF739FF4022152120200DF06D
:1092500058FC8A22142120200DF053FCA0221A2150
:1092600020200DF04EFCA822172120200DF049FCF3
:1092700019221B2120200DF044FC00221C2120205B
:109280000DF03FFC062000F015FA80222821202056
:109290000DF037FC2C22262120200DF032FC00227C
:1092A000382120200DF02DFC0022372120200DF048
:1092B00028FC04494FF4804008600349801108608D
:1092C00010BD0000101401401418014010B53F22D9
:1092D000002120200DF015FC0322002120200DF09C
:1092E00010FC7F22012120200DF00BFC1122052112
:1092F00020200DF006FC0022362120200DF001FC7C
:109300000C22112120200DF0FCFB402212212020F4
:109310000DF0F7FB4022132120200DF0F2FB40223C
:10932000212120200DF0EDFB8022002120200DF0D6
:10933000E8FB3220FFF7C1FE4022152120200DF06E
:10934000E0FB8A22142120200DF0DBFB00221A21F1
:1093500020200DF0D6FBA822172120200DF0D1FBF4
:1093600090221C2120200DF0CCFB07221F21202061
:109370000DF0C7FB2021062208460DF0C2FB0D4868
:1093800090F8260300F096F98022282120200DF085
:10939000B8FB2C22262120200DF0B3FB002238211F
:1093A00020200DF0AEFB00223721BDE81040202028
:1093B0000DF0A7BBA027002010B53F2200212020E0
:1093C0000DF09FFB0322002120200DF09AFB7F224D
:1093D000012120200DF095FB1122052120200DF008
:1093E00090FB0822242120200DF08BFB0C22102161
:1093F00020200DF086FB3022122120200DF081FB71
:109400002022132110460DF07CFB50222121202028
:109410000DF077FB5522222120200DF072FB142243
:10942000212120200DF06DFB8022002120200DF055
:1094300068FB3220FFF741FE4022152120200DF06D
:1094400060FB8A22142120200DF05BFB00222821E2
:1094500020200DF056FB00222521BDE810402020E1
:109460000DF04FBB10B53F22002120200DF049FB2D
:109470000322002120200DF044FB7F220121202027
:109480000DF03FFB1122052120200DF03AFB302288
:10949000122120200DF035FB2022132110460DF063
:1094A00030FB5022212120200DF02BFB55222221C0
:1094B00020200DF026FB2022212110460DF021FB5B
:1094C0008022002120200DF01CFB3220FFF7F5FD4B
:1094D0004022152120200DF014FB8A221421202087
:1094E0000DF00FFBC4221A2120200DF00AFBA82248
:1094F000172120200DF005FB19221B2120200DF043
:1095000000FB50221C2120200DF0FBFA062000F069
:10951000D1F88022282120200DF0F3FA2C222621D8
:1095200020200DF0EEFA0022382120200DF0E9FA7B
:109530000022372120200DF0E4FA04494FF4804046
:10954000086003498011086010BD0000101401403C
:109550001018014010B53F22002120200DF0D1FA53
:109560000322002120200DF0CCFA7F2201212020AF
:109570000DF0C7FAA0226F2120200DF0C2FA41227F
:10958000722120200DF0BDFA0122092120200DF0CA
:10959000B8FA88220F2120200DF0B3FA22220C21E4
:1095A00020200DF0AEFA2E220D2120200DF0A9FA78
:1095B000C6220E2120200DF0A4FA8A220A212020A2
:1095C0000DF09FFA07220B2120200DF09AFA41227C
:1095D000092120200DF095FA0822242120200DF0E9
:1095E00090FA0022362120200DF08BFA3022122131
:1095F00020200DF086FA2022132110460DF081FA6A
:109600005022212120200DF07CFAFF22222120204F
:109610000DF077FA1022212120200DF072FA80221D
:10962000002120200DF06DFA3220FFF746FD8A223E
:10963000142120200DF065FA4022152120200DF084
:1096400060FAA0221A2120200DF05BFA19221B21BA
:1096500020200DF056FA90221C2120200DF051FA06
:1096600002221D2120200DF04CFA00221F21202073
:109670000DF047FA20221E2110460DF042FA00227A
:10968000282120200DF03DFA0022252120200DF078
:1096900038FA0022382120200DF033FA0022372139
:1096A00020200DF02EFA60226D21BDE81040202010
:1096B0000DF027BA10B508281AD2DFE800F0040729
:1096C00009101219202212221D2121E0202200E07F
:1096D00024221D2120200DF014FA202217E024223C
:1096E00000E06A221D2120200DF00BFA22220EE05C
:1096F0006A221D2120200DF004FA242207E0012215
:1097000000E009221D2120200DF0FBF927221E2157
:10971000BDE8104020200DF0F4B900000149486177
:10972000704700000090024005490028886902D077
:1097300040F0020001E020F0020088617047000064
:1097400000900240F0B5104C00234FF0004744F267
:10975000F05C561E606012E000EB0314C3EB43158F
:1097600005EB831501EB05152760C4E901C5B3427C
:1097700003D204F11005E56000E0E0605B1C934259
:10978000EAD30249C860F0BD00000020009002400A
:10979000426811B122F0004101E042F00041416015
:1097A0007047000005490028886902D040F4005045
:1097B00001E020F4005088617047000000900240F2
:1097C000F0B50F4C00234FF48016551E206011E0B9
:1097D000C3EB431700EB031407EB831701EB0717E9
:1097E000A7602660AB4203D204F11007E76000E0F7
:1097F000E0605B1C9342EBD302490861F0BD0000BE
:10980000000000200090024002680A430260704796
:1098100001B581B001980090002801D0401EFAE700
:109820000CBD00000248816941F4801181617047DC
:10983000009002400748002200680168002906DA0B
:1098400005494B695B0702D504234B614A604260BE
:109850008068704700000020009002400068C0F35C
:109860000D407047074900204A68116811F0802FA9
:1098700006D1CB0504D5890502D51046FFF7EEBF0A
:109880007047000000000020034900200968C90754
:1098900000D00120704700000090024010B501E0A8
:1098A00000F056F9FFF7DEFF0028F9D14020FFF75E
:1098B00035FFBDE810404FF48030FFF72FBF0000A8
:1098C0002DE9FC4700258946044600954FF40042E7
:1098D00029464846019500F0F7F900283AD06A4831
:1098E000FFF796FF20686FF07F46A8B34FF440580B
:1098F0004FF47A770198401C01903846FFF7A1FA9F
:109900000121484600F0F8F84007019802D4FA28EF
:10991000F0D301E0FA2805D342460021484600F082
:10992000D3F93EE0424600214846019500F0CCF9CB
:1099300000280FD001980121401C0190484600F0FA
:10994000DBF8800602D40198B042F3D30198B0420C
:1099500003D10020BDE8FC8714E0112148460195A1
:1099600000F0CAF8810403D54FF40061216200E0E1
:10997000256210F4404F03D04FF48040606110E046
:1099800065610EE0206A6169C00840EA510082B258
:109990000021484600F098F90028DBD03046FFF758
:1099A00037FF3A4802683A490A40D4E9011319439B
:1099B000E36854F8105F2B43194363681943A368A5
:1099C0001943E36819432369194363691943A36978
:1099D0001943E3691943236A1943636A194311431D
:1099E0000160F4E90A121143D4E902231A43114336
:1099F0002269114362691143A2691143E26911436B
:109A00004160216A8160616AC16081694FF641727B
:109A10001140D4E90B231A43258D636B43EA0543B8
:109A20001A43A36B1A43E36B1A430A438261D4E9D6
:109A300010121143C1611748826917490A40D4E9DD
:109A400012131943D4E914352B431943A36D194359
:109A5000E36D1943236E1943636E1943A36E1943D3
:109A600011438161D4E91B121143626F54F8783FAE
:109A70001A431143626841EA8201A268114341F42A
:109A800000010160012065E7FEFF1F000080024029
:109A90000F8120FF00900240233FDEF8074B8A88A9
:109AA000184402640A78CB7842EA03628B784978DA
:109AB0001B0443EA01210A434264704700800240CC
:109AC00005490028086802D040F0040001E020F0B9
:109AD000040008607047000000800240054900282B
